:020000040000FA
:1000000008050010AD010000B1010000B3010000BF
:10001000B5010000B7010000B901000000000000B8
:10002000000000000000000000000000BB01000014
:10003000BD01000000000000BF010000C101000080
:10004000C3010000C3010000C3010000C3010000A0
:10005000C3010000C3010000C3010000C301000090
:10006000C3010000C3010000C3010000C301000080
:10007000C3010000C3010000C3010000C301000070
:10008000991F000019200000C3010000C3010000F7
:10009000C3010000E1200000C3010000C301000013
:1000A000C3010000C3010000C3010000C301000040
:1000B000A11400008914000071140000491400000C
:1000C00000F002F800F046F80CA030C808382418F8
:1000D0002D18671EA246AB4654465D46AC4201D180
:1000E00000F038F87E460F3EB6460FCC012633426C
:1000F00000D0FB1A3343A246AB461847E423000066
:1001000004240000103A02D378C878C1FAD8520704
:1001100001D330C830C101D504680C6070470000BD
:100120000023002400250026103A01D378C1FBD813
:10013000520700D330C100D50B60704710B5642959
:1001400002D100F097F810BD002010BD1FB51FBDF3
:1001500010B510BD00F088FA1146FFF7F7FF02F066
:100160004FF900F0A0FA03B4FFF7F2FF03BC00F070
:10017000A3FA000070B505460C46164602E00FCC07
:100180000FC5103E102EFAD2082E02D303CC03C5A1
:10019000083E042E07D301CC01C5361F03E02178A9
:1001A0002970641C6D1C761EF9D270BD084800478A
:1001B000FEE7FEE7FEE7FEE7FEE7FEE7FEE7FEE717
:1001C000FEE7FEE703480449024A044B704700007B
:1001D000C10000000803001008050010080300100B
:1001E0000FB41CB5074B06AA7B44694600900598DE
:1001F00000F013FA0020694600F075F81CBC08BC3A
:1002000004B01847FB000000F8B50E460446002075
:1002100020622046E1688847002829D0252802D09E
:100220006268A16820E0E168204600278847050051
:100230001ED028464138192802D80127FF02203550
:100240003246204627602946FFF778FF002808D06D
:10025000012804D0F61DF608F6000836D9E7361D49
:10026000D7E762682846A1689047206A401CCFE71C
:10027000206AF8BDF7B5002575291068009914A605
:1002800011D0C046C046002802DA404211A608E05C
:10029000009909688A0701D50FA602E0490704D52D
:1002A0000EA6012501E0C046C046009F0024243769
:1002B00004E000F0C5F930313955641C0028F8D14C
:1002C0002B4632462146009800F04AF9FEBD000058
:1002D000000000002D0000002B00000020000000A6
:1002E0007047704770470A681070521C0A60704768
:1002F000004870478000001070470000FFFFFFFFBC
:1003000030B5441C03E00178401C00290DD0810762
:10031000F9D10B4BDD0104C8D11A91432940FAD021
:10032000001B0A0603D0C01E30BD001B30BD0A04EE
:1003300001D0801E30BD0902FCD0401E30BD00003F
:1003400001010101F8B5042A2CD3830712D00B78E0
:10035000491C0370401C521E83070BD00B78491CAC
:100360000370401C521E830704D00B78491C037095
:10037000401C521E8B079B0F05D0C91ADF0020239B
:10038000DE1B08C90AE0FFF7F5FEF8BD1D4608C9E7
:10039000FD401C46B4402C4310C0121F042AF5D265
:1003A000F308C91A521EF0D40B78491C0370401C84
:1003B000521EEAD40B78491C0370401C012AE4D475
:1003C00009780170F8BD01E004C0091F0429FBD2BF
:1003D0008B0701D50280801CC90700D002707047CE
:1003E00000290BD0C30702D00270401C491E02290D
:1003F00004D3830702D50280801C891EE3E7002214
:10040000EEE70022DFE7002203098B422CD3030A28
:100410008B4211D300239C464EE003460B433CD451
:10042000002243088B4231D303098B421CD3030AB9
:100430008B4201D394463FE0C3098B4201D3CB01E9
:10044000C01A524183098B4201D38B01C01A524119
:1004500043098B4201D34B01C01A524103098B421D
:1004600001D30B01C01A5241C3088B4201D3CB0008
:10047000C01A524183088B4201D38B00C01A5241EB
:1004800043088B4201D34B00C01A5241411A00D29B
:1004900001465241104670475DE0CA0F00D0494204
:1004A000031000D3404253409C46002203098B4274
:1004B0002DD3030A8B4212D38901FC2212BA030AFC
:1004C0008B420CD3890192118B4208D3890192117E
:1004D0008B4204D389013AD0921100E08909C30903
:1004E0008B4201D3CB01C01A524183098B4201D305
:1004F0008B01C01A524143098B4201D34B01C01AF0
:10050000524103098B4201D30B01C01A5241C30867
:100510008B4201D3CB00C01A524183088B4201D3D6
:100520008B00C01A5241D9D243088B4201D34B00F1
:10053000C01A5241411A00D2014652411046634648
:100540005B1001D34042002B00D5494270476346FF
:100550005B1000D3404201B50020C046C04602BD3A
:10056000FFB504460D4681B024300090216888060E
:1005700004D51022E0699143216000E00120A842E7
:1005800001DD471B00E000270498A1697A191018C3
:10059000081AA0612078C00602D42046C046C04692
:1005A000002608E003986268A168805D9047206A91
:1005B000401C761C206204988642F3DB2078C0063B
:1005C0000AD52046C046C04606E06268A1683020D1
:1005D0009047206A401C206238467F1E0028F4DCC9
:1005E00007E000986268A168405D9047206A401C5F
:1005F000206228466D1E0028F3DC2046C046C04617
:100600002078000602D5022005B0F0BD0120FBE7EE
:1006100001694A1C02610878704700B58FB00291E9
:1006200000210591054901937944039111460490F5
:100630006846FFF7E9FD0FB000BD0000E5FFFFFFD2
:1006400001468008081A02091018020A1018020C44
:100650001018C008820012185200891A01E0401CCC
:100660000A390A29FBD270477546FFF741FEAE46AC
:10067000050069465346C008C000854618B020B53D
:10068000FFF7A0FD60BCB64600260027C0C5C0C568
:10069000C0C5C0C5C0C5C0C5C0C5C0C5403D49086E
:1006A00049008D46704710B50446C046C0462046F6
:1006B000FFF759FD10BD000001491820ABBEFEE751
:1006C0002600020080B5012803D10120022100226A
:1006D00002E002210120024600F04CFC80BD000037
:1006E000F0B50122D2030C4D002311E0C45C2402BA
:1006F0006C40002507E0561DA7B27C0066401742FB
:1007000000D034466D1CAEB2072EF4D95B1C2546D2
:100710008B42EBD1A8B2F0BDFFFF00000149087089
:100720007047C0460000001010B518480168184A0C
:100730001140016041681140416081681140816051
:100740000168144A114001604168114041608168AC
:100750001140816001210A028369134383614B02C6
:1007600084691C438461C4681443C460C2681A432A
:10077000C260C807084908600848016840229143E0
:100780000160826041681143416010BD04800050E7
:10079000FFFEFFFFFFFDFFFF00E100E010820440CD
:1007A000F8B50C463E21665C25463E35002E11D03C
:1007B0003C210091675C0622114679436118FFF7DE
:1007C000C1FD781C0A21FFF71EFE00982154701EFF
:1007D0002870F8BD0021418001708180F8BD0000C3
:1007E000B0B5364A11188D78145C8B790A79002DD2
:1007F00006D0002C0BD0002B0ED0002A23D11FE0F6
:10080000002C0CD0002B0FD0002A19D113E0002BA4
:100810000FD0002A0AD10EE0002A07D113E0002BE6
:100820000CD0002A0FD101E0002A04D18A7B521C8F
:1008300008E0002A04D001220A7504E0002A02D050
:100840008A7B521E8A730A7D002A0DD000220A7507
:1008500001220A720C228A56012A03DB8A7B521C6F
:100860008A7301E0002A25DB8A7B0A73042A0ED0F2
:10087000FC2A1ED100228A738A7D521C8A750128A7
:1008800012D0002815D1012001F0AEF8B0BD002231
:100890008A738A7D521E8A75012807D0002808D1E4
:1008A000002001F0A1F8B0BD012000E0002001F01F
:1008B000FDF8B0BD8A7B521ED2E7C0460001001091
:1008C000694902220A60074A8A6048610320C043DE
:1008D000FF220A5004200861012008600A680242D1
:1008E000FCD1704780BB0000002801D05E4800E0CA
:1008F0005C48002101607047F8B517460D4600902E
:1009000001F0F2FAA026304601F01CFA012084071B
:10091000606818283BD10098000A01F013FA60685B
:10092000282834D10098C0B201F00CFA6068282859
:100930002DD101F0D9FA701CC0B201F003FA606841
:10094000402824D1022F18D30820A0612268042156
:1009500001E0A06122680A43226001E00C22A2614A
:1009600022680242FCD0A2682A70FAB27F1E6D1C77
:10097000022AF3D0012AECD109E0012F07D10C2083
:10098000A061206808210842FBD0A068287001F00F
:10099000BBFAF8BDF8B515460E46074601F0A4FAB5
:1009A000A024204601F0CEF90097380A01218F07D4
:1009B00079681829FCD101F0C5F978682828FCD19C
:1009C0000098C0B201F0BEF978682828FCD107E091
:1009D000307801F0B7F978682828FCD1761C6D1EB4
:1009E0002806F5D101F090FA00200B49884210D872
:1009F00060223A600822BA613B681342FCD0BC60B6
:100A00002823BB613B681342FCD0401C7A68182A3B
:100A1000ECD101F079FAF8BD9FBB0D0070B504462A
:100A20003E20205C25463E350A2811D03D26A05D9B
:100A300006234343E152E0188280090C4180A05D07
:100A4000401C0A21FFF7DFFCA1552878401C2870C4
:100A500070BD0000002801D0034800E001480121DA
:100A60000160704704C000400400014070B50124DB
:100A70002046FFF727FE0025284601F0D9F9022677
:100A80003046FFF74BFE00F06DFE284631462A4601
:100A900000F070FA2004084908602846FFF724FF98
:100AA000FFF742FE0548016804229143016030BF10
:100AB00001F04EFA70BDC04680E100E010ED00E0AC
:100AC00080B52B281AD02D2820D03C2826D03E28AF
:100AD0002CD04D2832D0522838D0532843D05B2810
:100AE00049D05D284ED05E2856D12C484078012848
:100AF00052D1002001F09CF92FA04BE0274840780C
:100B0000012849D1012000F06FFF80BD23484078C3
:100B1000012841D1002000F067FF80BD1F484078C8
:100B2000012839D1002000F0C1FF80BD1B4840786A
:100B3000012831D1012000F0B9FF80BD174840786D
:100B4000012829D1012000F0CBFE80BD1348417857
:100B5000012921D1C1790022521A4A41C2710029CA
:100B600017D00FA016E00D484078012814D10220BC
:100B700000F0B6FE80BD0948417800290CD1012162
:100B8000417080BD05484178012905D1002141709F
:100B900080BD06A001F00AFB80BDC0462001001008
:100BA0000A0D524453204F46460000000A0D52449D
:100BB00053204F4E000000000A0D4D757465204F04
:100BC0004E0000007FB503A800240470624DBCE015
:100BD00003A8017869180C76017869188C7600787A
:100BE000002806D003A8007801280AD1012000219E
:100BF00001E00120042100F0B1F803A9097802AA5C
:100C0000505403A80178695C027802AB9A5C0078C2
:100C100091421CD12818007C002821D003A801781B
:100C20002A461032535C5B1E53540078105C002837
:100C300016D103A80178691889780078285C814268
:100C40000ED003A8007828180121017608E002A937
:100C5000085C03A90A78A8540878281801210174AF
:100C600003A80078002806D003A8007801280AD13C
:100C70000120014601E00120052100F06FF803A9E1
:100C8000097801AA505403A80178691809790278F3
:100C900001AB9A5C007891421DD12818807C002815
:100CA00023D003A801782A461232535C5B1E5354AA
:100CB0000078105C002818D103A801786918897998
:100CC00000782818007981420FD003A800782818EE
:100CD0000121817609E001A9085C03A90A78AA1814
:100CE0001071087828180121817403A80078281849
:100CF000007E002805D103A800782818807E0028EF
:100D00001FD003AE30782818142181723078FFF795
:100D100067FD30782818007E002805D003A80178E8
:100D2000695C00782818817003A800782818807EF4
:100D3000002806D003A801786918097900782818D6
:100D400081710398401C03A9087003A8007801284A
:100D500000D83DE77FBDC0460001001010B5024637
:100D60000020032A22D8C0467A44127952009744C0
:100D700001060B10012213468B4097490DE001221A
:100D800013468B40934908E0012213468B4090495B
:100D900003E0012213468B408C490C681C4205D0AD
:100DA00008681840002800D10246104610BDC04611
:100DB000F0B587B04248016840220A43026001242E
:100DC000E00740490860A007086060070860200746
:100DD00008603D4800250560C560C5610462446245
:100DE0001121416691218166C166016784219022AB
:100DF000425082509421445098214450456085626D
:100E0000324E284629462A46B047284621462246E1
:100E1000B0470221069128462246B047032105919A
:100E200028462246B0470421049128462246B0476E
:100E30000521039128462246B04706210291284603
:100E40002A46B0470721019128462A46B047082183
:100E5000009128462A46B0470927284639462A469F
:100E6000B0470B2128462246B047204629462A464D
:100E7000B047204621462A46B047204606992246DA
:100E8000B047204605992A46B047204604992A468D
:100E9000B047204603992A46B047204602992A4681
:100EA000B047204601992246B04720460099224685
:100EB000B047204639462A46B04707B0F0BDC04685
:100EC0008080044080E100E0104004400D0F0000ED
:100ED000032811D8094AC046784400794000874465
:100EE00006010305084A02E0064A00E0044A012020
:100EF00088401168814311607047C04610800050DF
:100F000010800350108002501080015010B503284B
:100F100027D8C04678440079400087440105090D70
:100F20000120884012490AE0012088400F4906E06C
:100F3000012088400C4902E00120884009490C68E2
:100F400004400B68012A04D1002C02D103430B603A
:100F500010BD0340002A04D1002B02D00A6882434E
:100F60000A6010BD008003500080025000800150D4
:100F70000080005010B5032827D8C0467844007977
:100F8000400087440105090D0120884012490AE00C
:100F9000012088400F4906E0012088400C4902E00A
:100FA0000120884009490C6804400B68012A04D1DB
:100FB000002C02D103430B6010BD0340002A04D172
:100FC000002B02D00A6882430A6010BDFC3F035028
:100FD000FC3F0250FC3F0150FC3F005070B56020C8
:100FE0000E4C205E002818DA1A340D49204600F015
:100FF000EBFB002811D00BA00D4EB0472046B047A8
:101000000CA0B047064D2846B04709212046FFF7FF
:10101000F6F941212846FFF7F4F970BD20010010D0
:10102000B00100100A524453204E616D653A2D0004
:10103000AD2100000A52445320546578743A2D00C3
:1010400080B500F07FFA0120FFF768FB00F08AFB13
:1010500000F008F800F028F800F05EF900F0D0F891
:1010600080BD0000B0B500250E4C0EE00020092127
:10107000FFF774FE60556119887005E000200821B3
:10108000FFF76CFE2070A0706D1C0120C107284680
:1010900088430028F2D00228E8D100202061A07106
:1010A000B0BDC046E00000107FB503A80025057064
:1010B0002E4E56E003A8007800280FD003A8007831
:1010C00001281CD1012400212046FFF747FE03A977
:1010D000097802AA5054204621460AE0012404213E
:1010E0002046FFF73BFE03A9097802AA50540521C8
:1010F0002046FFF733FE03A9097801AA505403A83C
:10110000017802AA515C0378F1540178515C0278AD
:10111000B2189170017801AA515C0378F318197123
:101120000178515C0278B2189171017871180D72D2
:101130000178711814228A72017871180D73017880
:1011400071188D73017871180D74017871188D7490
:10115000017871180D75017871188D750399491C06
:10116000017003A800780128A4D97FBD00010010F8
:10117000B0B5FFF71DFE00F01BF87D20C4000B4D3D
:1011800028682146FFF73FF9411E002000F076F85D
:1011900028682146FFF737F9411E012000F06EF85C
:1011A0004B20C00100F044FFB0BDC04664000010F9
:1011B0001148016802220A430260C16F20220A43DB
:1011C000C2673F20C1430D4802680A4002600268BE
:1011D00001231A43026042680A4042604168194391
:1011E00041609807F02141610161FF218161402147
:1011F000016001607047C0460480044030400440F4
:1012000080B5DA480121817000F002F880BDC04647
:10121000F8B51748002404600521164F20462246E1
:10122000B847C8201449884702262046314622463E
:10123000B8470125204629462A46B847642738463C
:101240000D498847204631462A460A4B984738467A
:10125000094EB04706480560FFF7AAFF4B20800003
:10126000B04700F03DF9C14845700470F8BDC04674
:1012700034400440750F0000C1080000012814D05C
:10128000002818D10C4802688023134303600B48E0
:10129000002242600A484260026001610321C1608D
:1012A000012000040749086070470120000202493C
:1012B0000A6802430A607047808004409001001071
:1012C00008C0004000E100E010B500200921012421
:1012D0002246FFF74FFE082120462246FFF74AFE2E
:1012E00010BD10B50921002420462246FFF742FE1A
:1012F000012008212246FFF73DFE10BD80B50548BC
:1013000001780022521A4A41027001200821FFF799
:1013100031FE80BDFE02001080B53E212E48002225
:1013200042548287044A13885188090419439288D9
:10133000FFF774FB80BDC046AA240000BCB501467F
:10134000214D2878002828D0287A6988814238D20F
:101350006889E988814205D2FFF7C3FFE888411C0C
:10136000E9806889AA888BB2834209D3AB899A4203
:1013700006D2FFF7A9FFA888421CAA806889E988DD
:10138000AB8992B29A421ED389B281421BD300200C
:1013900068606888401C6880BCBD3E20085C0028EE
:1013A00011D06C462046FFF7FBF92846083006228C
:1013B0002146FEF7C7FF0120287000206880686082
:1013C000BCBD00202870BCBDF000001080B50248F4
:1013D000FFF7B4FF80BDC046BE020010B0B515488F
:1013E00015490160154900238B630122CA63CB6351
:1013F000CA63CB6B1342FCD00B68114C1C402323F7
:1014000023430B600F4B1C688025AC431C604B686A
:101410001342FCD003238B66CA660023CB66CA66E0
:10142000CB6E1342FCD00A6701688900416081607D
:10143000B0BDC0465C000010001BB700088004402F
:1014400000FEFFFF3882044001210A0207480368BA
:10145000134202D0436813434360490202680A42C0
:1014600002D042680A4342607047C046188000506C
:101470000448026802210A4202D042680A434260DC
:101480007047C046188001500448026802210A4291
:1014900002D042680A4342607047C046188002503A
:1014A0000448026820210A4202D042680A4342608E
:1014B0007047C04618800350B0B500250BE0FFF719
:1014C00010FF64242046FFF7FBF9FFF7FDFE2046DE
:1014D000FFF7F6F96D1CE8B20428F0D9B0BD0000A2
:1014E000B0B500F05FFBC820FFF7EAF981200002E9
:1014F0005A21FA4C60520F4DA8474B208000FFF74D
:10150000DFF950200C492152A8472120C001542165
:101510006052A8475620215A084A0A402252215AAE
:10152000074A0A402252215A10220A432252A8474F
:10153000B0BDC046A523000001400000CFFF000061
:10154000F0FF000010B51320C143074AE34804E050
:1015500043184C241A531A87891C0029F8D10021FA
:101560004181C160018210BD2E22000020010010C7
:10157000B0B55D4DA878012812D002281FD1687837
:10158000012828D000285AD10024AC70204600F051
:101590004FFC204600F038FC5DA000F007FE7AE02A
:1015A000687801284BD1287A002803D000202872BF
:1015B00000F09EFE687A002842D0688A49E0687888
:1015C000012805D10120A87054A000F0EFFDB0BDA6
:1015D000FFF74CFAB0BDE88A00280AD0401EE88226
:1015E0004A49084205D16879E88128820220FFF73C
:1015F00095F8A88A00280AD0401EA88243490842CC
:1016000005D128796881A8810220FFF787F8374C37
:101610002078002806D068790F2801D800F008FC4F
:1016200000202070287800283BD0688A00F09CFBBE
:101630000020A8712870688A298B81422FD1B0BD03
:1016400001206872287940002818808C6882A97B64
:10165000697100F089FB0020E8700221A970E8712F
:1016600022490120087000F0CFFB21A000F09EFD70
:101670006A8A244C24492046FEF7B2FD204600F039
:1016800095FD687900F0D4FB6879002803D000202C
:10169000FFF718F8B0BD0120FFF714F8B0BD28839C
:1016A000B0BDE8790028C6D0E078401CE070C0B238
:1016B0000A28C0D10020E07000F074FAFFF78EFC19
:1016C0006020285A010A01200840A871A1788142AF
:1016D00003D16078002803D1ADE7A07004206070CA
:1016E000401E6070A7E7C046200100107002001085
:1016F0000A0D526164696F20496E697469616C6991
:101700007A65640000020010D0240000FFFF000092
:101710000A0D506F776572204F4646000A0D506FD4
:10172000776572204F4E0000B0B50B49087801284C
:1017300011D10020087001214C058021074D6C500B
:1017400007490A78552A03D18A78AA2A00D148780D
:10175000FFF7B6F92C60B0BD6900001000E100E0B1
:101760006D000010F8B5174F3878022811D0012805
:1017700027D139460E3100201A242246FFF7BCF843
:101780003946283180202246FFF7B6F800F018FDD0
:1017900015E000F087FD3C46423400201A25214622
:1017A0002A46FFF7F7F864263046FFF789F88020CD
:1017B00021462A46FFF7EEF83046FFF781F8002071
:1017C0003870F8BD0000001070B58CB00D460646AC
:1017D0000BA9002008704D21CE4C60546621CC4AE4
:1017E000515A03AB19806821515A02AB19802073FA
:1017F0006A21515A01AB1980518A128B8A4207D053
:1018000020736060A06020460D304121FEF7F7FD97
:1018100003A80088000B0AA90870087802281DD0C8
:10182000002847D1039840000621014009A8017013
:101830000199090A06AA117004A9019A0A70211DCA
:10184000069A0378CA54049A00780818427009224C
:101850003046FEF777FD0BA801212AE003988000AF
:101860003C21014008A801700299090A07AA1170D9
:1018700005A9029A0A700199090A06AA117004A919
:10188000019A0A700D3407990278A15405990278DB
:10189000A218517006990278A218917004990078E4
:1018A0002018C170412228462146FEF74BFD0BA8A7
:1018B000022101700BA800780CB070BD022801D085
:1018C000012809D1EC484178002903D0012903D12E
:1018D000002100E0012141707047C0462001001046
:1018E000B0B52D4D6978012954D102281BD00128AB
:1018F00050D1E8780021091A4141E970E8780028C0
:1019000031D02FA000F052FC2A79244C30492046D7
:10191000FEF766FC204600F049FC287940002818B4
:10192000828C6A8223E02879410069186A8A8A8455
:101930000A87A88168810220FEF7F0FE0120E87086
:101940006A8A164C16492046FEF74AFC204600F0EB
:101950002DFC2A7913A12046FEF742FC204600F018
:1019600025FC15480EE01BA000F020FC6A8A0B4CF9
:101970000B492046FEF734FC204600F017FC0120FE
:1019800028701848028841880904114382880B484E
:10199000FFF744F8B0BDC04620010010000200105F
:1019A000D02400000A0D4368616E6E656C202564CA
:1019B0002053617665640000B0240000BE02001070
:1019C0000A0D507265736574204D6F6465000000E8
:1019D000BF2400000A0D4D616E75616C204D6F646F
:1019E00065000000A4240000B0B5A34D697801296A
:1019F00052D1002811D001284ED1E878002832D0E9
:101A00002879082848D8401C2871C2B250002818EC
:101A1000808C254988420FD33EE0E87800282AD000
:101A20002879002838D0401E2871C2B250002818EA
:101A3000808C1A4988422FD9012129706882364C3E
:101A400017492046FEF7CCFB204600F0AFFB6A8A20
:101A500014492046FEF7C4FB204600F0A7FB7D207A
:101A60008000A882B0BD688A0F49884214D2012143
:101A700029700A3006E0688A084988420CD9012199
:101A800029700A38688282B2234C06492046FEF744
:101A9000A7FB204600F08AFBB0BDC0462E22000006
:101AA000BF240000D0240000302A000010B5E74C0D
:101AB000617801292BD100280DD0012827D1607928
:101AC0000E2815D8002803D10020FEF7FBFD607911
:101AD000401C60710CE061790020002908D0481E8C
:101AE0006071FF21084203D10120FEF7EBFD607910
:101AF000084901220A707D218900E182C2B2064CA8
:101B000006492046FEF76CFB204600F04FFB10BD57
:101B1000200100107002001000020010B624000026
:101B20007CB50D46044601AE2020307072B600F040
:101B3000DBF930780126304300F004F9B007416842
:101B400040291AD1022D1CD3082181610368042287
:101B500001E0816103681343036001E00C238361AA
:101B600003680B42FCD083682370EBB26D1E641CCB
:101B7000022BF3D0012BECD10DE000F0C5F90020D1
:101B80000DE0012D07D10C2181610168082211426D
:101B9000FBD08068207000F0B7F962B6012002B077
:101BA00070BD000010B588B06C4620212046FFF7BC
:101BB000B7FF0098617802020A436021A3484252AD
:101BC000A178E27809021143622281520199627977
:101BD0000902114364228152A179E2790902114379
:101BE000662281520299627A090211436822815267
:101BF000A17AE27A090211436A2281520399627B37
:101C0000090211434C228152A17BE27B090211435C
:101C10004E2281520499627C090211435022815262
:101C2000A17CE27C09021143522281520599627D16
:101C30000902114354228152A17DE27D0902114320
:101C4000562281520699627E09021143582281521E
:101C5000A17EE27E090211435A2281520799627FD6
:101C6000090211435C228152A17FE27F09021143E4
:101C70005E22815208B010BD20010010F8B52F4837
:101C8000046808252E4E3746102D55D00020082D0B
:101C900004D10821FFF762F8307003E00921FFF753
:101CA0005DF838703878002825D03878002802D1BF
:101CB000B87800282DD03878002802D0B8780028CD
:101CC00020D0387800281FD0B87800281CD0387968
:101CD000042805D17059002802D07059A0421FD99C
:101CE0003879042810D17059A0420DD900207051C4
:101CF0003871022018E0B8780028D6D00020705142
:101D0000012000E0042038713878B8707F1C2D1D48
:101D1000BAE738790128F7D17059401C7051F3E7C0
:101D20000020705138710120082D02D1FFF7D8FD35
:101D3000EAE7FFF7C3FDE7E7F8BDC046A0240000CF
:101D4000E000001080B501218907886028208861A3
:101D500004480A6808231A4203D1401EF9D100F052
:101D6000D3F880BD31750000F8B52349411889B218
:101D70000025224A914205D8214940180A21FEF740
:101D800042FBC5B2FFF70EFF5222304CA05A7F2112
:101D900049020140A152A05A2843A052A05A194911
:101DA000491C01430092A15200F0FCFAAD2046010B
:101DB000012087033546280408D0FFF7F3FE602092
:101DC000205A384000046D1E0028F4D0FFF7EAFEC8
:101DD0000099605A0B4A1040605200F0E3FA300458
:101DE00008D0FFF7DFFE6020205A38400004761E3E
:101DF0000028F4D1F8BDC046D1DDFFFF0108000086
:101E0000D2DDFFFFFF7F000010B554210F4A535A67
:101E1000064C1C4054520C230824002800D02346B2
:101E2000505A1843505200F0BDFA10BDF3FF0000A5
:101E300010B55621054A535A054C1C405452535A6A
:101E40000343535200F0AEFA10BDC046200100100B
:101E5000F0FF0000BCB501A90020087021493BE05B
:101E600001AA12788A18927A002A31D001AA13782E
:101E7000CB189C7A641E9C7212788A18127A002AF7
:101E800019D001AA12786B4614249C540BE001AAC5
:101E900012788A18927A002A05D001AA12788A1834
:101EA000937A5B1E937201AA12786B469C5C651E46
:101EB0009D54002CEBD101AA12788A18927A002A3C
:101EC00006D101AA1378CB18187212788A18907369
:101ED000019A521C01AB1A7001AA1278012ABFD9CB
:101EE000BCBDC0460001001001208007FF218161B8
:101EF000016860220A430260026808210A42FBD09E
:101F000042680A42FCD070470120800708218161A5
:101F1000016814220A430260016810221142FBD1B9
:101F20007047000010B5084C002020600748016889
:101F3000202291430160FFF751FA01200004216E35
:101F40000143216610BDC046208004403882044011
:101F500070B5002408212046FEF7BAFF092120466B
:101F6000FEF7B6FF0125E8078021524E7050094860
:101F70000168402291430160FFF774F82804306043
:101F80002046FEF767FD2846FEF79CFBFFF738F971
:101F900070BDC046148204401D48012101601D48E7
:101FA0004168491C41604168002906D00021416018
:101FB0000178002901D1012101708168491C8160EB
:101FC00081680A2906D3002181604178002901D166
:101FD00001214170C168491CC160C168642906D3F0
:101FE0000021C1608178002901D10121817001693E
:101FF000491C01610169C9087D2904D300210161DF
:10200000C178002900D070470121C1707047C046D7
:1020100000C0004090010010034801210160034806
:102020000168491C01607047000001400003001076
:10203000F8B500905C48012505706E0580201D49AB
:102040000E500727F8431C490A6802400A600A68D4
:102050002A430A604A6802404A6048682843486048
:10206000280316490A6802430A608D614D4C83209B
:10207000E060896912480068FEF7C5F90009009917
:10208000FEF7C1F9010A6160C0B220600320E06080
:10209000A76060696069602101406029FAD100E0B1
:1020A000206860692842FBD1024806600520606014
:1020B000F8BDC04600E100E0A44004408080044038
:1020C0006400001010B5374A07E05369202423420A
:1020D000FBD003781360491E401C0029F5D110BDC8
:1020E0001CB53048816801AA117011784908117037
:1020F000117807230B401370117803290BD1416924
:102100006A461170137811789E22134229D0264A0C
:10211000D16000681CBD01A90978022916D10068A8
:10212000214CA1684A1CA26061188870A06803282D
:1021300037D16078002806D1A268601DA11CFEF787
:1021400001F9012060700020A0601CBD01A9097880
:10215000062915D1012000021349CA680243CA604A
:102160001CBDC9071DD001680F488268531C8360DD
:10217000821891708168032913D1002181601CBDF0
:1021800001A9097801290CD14069694608700878CD
:102190002021084202D10448002101E00248012127
:1021A00001701CBD008000406800001010B504469E
:1021B000FEF7A6F801462046FFF784FF10BD000099
:1021C000F8B5474F3C460E34182620463146FEF7F8
:1021D00087FAB8802720385C2621795C0002084302
:1021E000F8803D46283528463146FEF779FA388191
:1021F0004120385C4021795C000208437881B8882E
:10220000F988884201D1012078703889798988421B
:1022100001D10120B8707878012802D1B87801285E
:1022200015D07878012802D1B87801280FD17878B4
:10223000012818D0B878012815D11648142229464B
:10224000FEF780F8B88F14490880F88F08E011482D
:1022500014222146FEF776F8788C0F490880B88C56
:102260000E49088012E0787801280FD0B87801284C
:102270000CD000200749324A01E00A52801C142881
:10228000FBD1064800210180034801800448012158
:102290000170F8BD440100102A0100102E01001049
:1022A00028010010B0B50E4D2C4642340D491422C1
:1022B0002046FEF747F80C480088562168520B4824
:1022C00000885821685218212046FEF709FAA88193
:1022D000A8895A216854A889000A5B216854B0BDB6
:1022E00000000010580100102C01001030010010F7
:1022F000F0B51320C143124A4048124B124C0AE079
:1023000045182E8FF718BFB2A74201D32A87164669
:102310004C27EE53891C0029F2D141890A2904D3A4
:10232000002181814181017102E00171C9B2818185
:10233000C189102901D30021C1810182F0BDC046AD
:102340002E220000D2DDFFFF03080000F8B50C4686
:10235000054672B6FFF7C8FD2020FFF7F3FC0F4ECD
:102360003068182814D10E4F0BE02878FFF7EAFCEC
:1023700038463168282902D0401EFAD108E06D1C89
:10238000641E2006F1D1FFF7BFFD62B6012002E016
:10239000FFF7BAFD002001B0F0BDC04604000040C8
:1023A00031750000F8B550221449885A030A01A873
:1023B00003708A5A427052228B5A1B0A83708A5ABF
:1023C000C27054228B5A1B0A03718A5A42715622D8
:1023D0008B5A1B0A83718A5AC27158228B5A1B0A64
:1023E00003728A5A42725A228B5A1B0A8372895A82
:1023F000C1720C21FFF7AAFF8FBDC046200100105B
:10240000F8B5FFF78FFDFEF7B3FE01252846FEF76E
:1024100059F9FFF751F8FEF713FE00242046FEF7A6
:1024200019FB2846FEF716FB194A1A4B1B490D46A5
:102430001646194F1078002805D01470FEF7C2FB1D
:10244000144B324629461878002809D01C70FFF733
:1024500015FCFEF7BBFFFFF78BF80E4B3246294603
:102460003878002809D03C70FFF7F4FCFFF77AF9C0
:10247000FFF75AF9074B3246294608780028D9D089
:102480000C70FEF73BFF034B32462946D2E7C046AD
:1024900090010010910100109201001093010010B2
:1024A000F401000001000A001900050019001900DC
:1024B0000100C8000A000A566F6C3A2D2564000A14
:1024C0000D4368616E6E656C204E6F3A2D25640079
:1024D0000A0D4672657175656E63793A2D25640043
:1024E000002500000000001078000000040100003A
:1024F0007825000080000010880400002001000002
:1025000001000000000000000000000000000000CA
:1025100000000000000000000000000000000000BB
:1025200000000000000000000000000000000000AB
:10253000000000000000000000000000000000009B
:10254000000000000000000000000000000000008B
:10255000000000000000000000000000001BB700A9
:10256000001BB700001BB7000100000000000000C6
:08257000000000000000000063
:04000005000001AD49
:00000001FF
