:020000040800F2
:100000000000022005AE0108791100087D110008EA
:100010008111000885110008891100080000000006
:100020000000000000000000000000008D1100082A
:1000300091110008000000009511000899110008B6
:100040004DAE01084DAE01084DAE01084DAE0108A0
:100050004DAE01084DAE0108A51100089D11000824
:100060004DAE01084DAE01084DAE01084DAE010880
:100070004DAE01084DAE01084DAE01084DAE010870
:100080004DAE01084DAE01084DAE01084DAE010860
:100090004DAE01084DAE01084DAE01084DAE010850
:1000A0004DAE01084DAE01084DAE01084DAE010840
:1000B000AD1100084DAE01084DAE01084DAE01086E
:1000C0004DAE01084DAE01084DAE01084DAE010820
:1000D0004DAE01084DAE01084DAE01084DAE010810
:1000E0004DAE01084DAE01084DAE01084DAE010800
:1000F0004DAE01084DAE01084DAE0108710B000870
:100100004DAE01084DAE01084DAE01084DAE0108DF
:100110004DAE01084DAE01084DAE01084DAE0108CF
:100120004DAE01084DAE01084DAE01084DAE0108BF
:100130004DAE01084DAE01084DAE01084DAE0108AF
:100140004DAE01084DAE01084DAE0108B1110008D9
:100150004DAE01084DAE01084DAE01084DAE01088F
:100160004DAE01084DAE01084DAE01084DAE01087F
:100170004DAE01084DAE01084DAE01084DAE01086F
:080180004DAE01084DAE01086F
:1001C0002DE9F04FDFF830E3DFF824A30F460121DB
:1001D00087B04FF0000805460846CEF80880CEF8F4
:1001E0000080CEF80C80CEF80480CEF81080144643
:1001F0008EF814801E4613F0F3FA0121022013F04A
:10020000EFFA0121042013F0EBFA0121082013F08A
:10021000E7FA01214FF4001013F0E2FA01214FF444
:1002200000104FF0100B13F005FB01214FF40040BC
:1002300013F000FB4FF00209012350460DEB0B01B8
:100240008DF8143001938DF816808DF81780CDF855
:1002500010B08DF8159012F0D5FA019BA1488DF8D9
:1002600016304FF410720DEB0B0104928DF81590BF
:100270008DF814908DF8178012F0C4FA042206212C
:10028000984812F051FB04220921964812F04CFBC9
:100290004FF4A4530DEB0B01934804938DF8159084
:1002A0008DF814908DF816808DF8178012F0AAFA48
:1002B000062207218C4812F037FB06220A218A48C1
:1002C00012F032FB06220C21874812F02DFB0DEBB9
:1002D0000B018648CDF810B08DF815908DF814906C
:1002E0008DF816808DF8178012F08CFA0622042102
:1002F0007E4812F019FBAAF81AB0CDF80C80039BC7
:1003000044F6FE72934206DC00BF039B0133039365
:10031000039B9342F8DD764B10221A8301214FF4A0
:10032000001013F0CDFA00214FF4001013F0C8FABA
:10033000704B2A2148F233029980D2201A812B2156
:1003400040F201429883198419461A800A8B694B3E
:100350009007FBD41A8892B242F480721A80998A6C
:10036000644AC907FBD594231382918A614B88079D
:10037000FBD50222198B1A82998A5E4A0906FBD59F
:1003800001231382918A5B4B4807FBD51A8892B2EE
:1003900042F400721A801A46118B564B8907FBD41F
:1003A0001A8892B242F480721A80998A514AC80718
:1003B000FBD594231382918A4E4B8907FBD50422E7
:1003C000198B1A82998A4B4A0806FBD5AF231382F0
:1003D000918A484B4907FBD51A8892B242F40072C1
:1003E0001A801A46118B434B8807FBD41A8892B2A5
:1003F00042F480721A80998A3E4AC907FBD5942339
:100400001382918A3B4B8807FBD50522198B1A82F0
:10041000998A384A0906FBD581231382918A354B84
:100420004807FBD51A8892B242F400721A801A4625
:10043000118B304B8907FBD41A8892B242F4807238
:100440001A80998A2B4AC807FBD594231382918A74
:10045000284B8907FBD50622198B1A82998A254ACF
:100460000806FBD504231382918A224B4907FBD54A
:100470001A8892B242F400721A801A46118B1D4BF0
:100480008807FBD41A8892B242F480721A80998A43
:10049000184AC907FBD594231382918A154B880704
:1004A000FBD52022198B1A82998A124A0906FBD59C
:1004B00018231382918A0F4B4807FBD51A8892B2F2
:1004C00042F400721A801A46118B0A4B8907FBD43A
:1004D0001A8892B242F480721A80998A054AC80733
:1004E0000CE000BF0004024000080240000002408F
:1004F000000C024000540040380A0020EDD594233F
:100500001382918A8D4B8907FBD52122198B1A8280
:10051000998A8A4A0806FBD518231382918A874B49
:100520004907FBD51A8892B242F400721A801A4623
:10053000118B824B8807FBD41A8892B242F48072E6
:100540001A80998A7D4AC907FBD594231382918A20
:100550007A4B8807FBD50222198B1A82998A774A2F
:100560000906FBD59E231382918A744B4807FBD55D
:100570001A8892B242F400721A801A46118B6F4B9D
:100580008907FBD41A8892B242F480721A80998A41
:100590006A4AC807FBD594231382918A674B89075F
:1005A000FBD50A22198B1A82998A644A0806FBD560
:1005B00000231382918A614B4907FBD51A8892B2B6
:1005C00042F400721A801A46118B5C4B8807FBD4E8
:1005D0001A8892B242F480721A80998A574AC907DF
:1005E000FBD594231382918A544B8807FBD50E22A6
:1005F000198B1A82998A514A0906FBD50423138262
:10060000918A4E4B4807FBD51A8892B242F4007289
:100610001A801A46118B494B8907FBD41A8892B26B
:1006200042F480721A80998A444AC807FBD5942301
:100630001382918A414B8907FBD52722198B1A8295
:10064000998A3E4A0806FBD500231382918A3B4BC8
:100650004907FBD51A8892B242F400721A801A46F2
:10066000118B364B8807FBD41A8892B242F4807201
:100670001A80998A314AC907FBD594231382918A3B
:100680002E4B8807FBD51F22198B1A82998A2B4A79
:100690000906FBD50F231382918A284B4807FBD507
:1006A0001A8892B242F400721A801A46118B234BB8
:1006B0008907FBD41A8892B242F480721A80998A10
:1006C0001E4AC807FBD594231382918A1B4B8907C6
:1006D000FBD51A22198B1A82998A184A0806FBD56B
:1006E0000A231382918A154B4907FBD51A8892B2C7
:1006F00042F400721A801A46118B104B8807FBD403
:100700001A8892B242F480721A80998A0B4AC907F9
:10071000FBD594231382918A084B8807FBD51B22B3
:10072000198B1A82998A054A0906FBD50A23138276
:10073000938A02495807FBD502E000BF00540040ED
:100740000B881248124A9BB243F400730B800023BB
:1007500083839368AD0123F4000345EA0777936030
:10076000C2F88470136843F08063136013681B0140
:10077000FCD544F40074054B44EA0626B6B24FF4A7
:1007800060621E849A8307B0BDE8F08F003C004091
:100790000038024015490A8B144B9007FBD41A8885
:1007A00092B242F480721A80998A104AC907FBD526
:1007B00094231382918A0D4B8807FBD50222198B53
:1007C0001A82998A094A0906FBD59E231382938AC5
:1007D00006495B07FBD50B88054A9BB243F40073BF
:1007E0004FF460600B809083704700BF005400405E
:1007F000003C004014490A8B134B9007FBD41A8825
:1008000092B242F480721A80998A0F4AC907FBD5C6
:1008100094231382918A0C4B8807FBD50222198BF3
:100820001A82998A084A0906FBD501231382938A02
:1008300005495B07FBD50B88044A9BB243F4007360
:1008400000200B809083704700540040003C004023
:100850002A4B2B4918780A8B294B9207FBD41A880C
:1008600092B242F480721A80998A254AC907FBD550
:1008700094231382918A224B8907FBD51E22198B60
:100880001A82998A1E4A0906FBD580B21082918A83
:100890001B4B4807FBD51B491A88487D897D92B2BE
:1008A00042F4007241EA00101A80C0B21A46118B5D
:1008B000134B8907FBD41A8892B242F480721A80D3
:1008C000998A0F4AC907FBD594231382918A0C4B4E
:1008D0008907FBD51F22198B1A82998A084A0906B3
:1008E000FBD580B21082938A05495B07FBD50B8844
:1008F0009BB243F400730B80704700BF00000020E0
:1009000000540040380A002019302649C0B20A8B32
:10091000244B9207FBD41A8892B242F480721A8058
:10092000998A204AC907FBD594231382918A1D4BCB
:100930008907FBD52022198B1A82998A194A090640
:10094000FBD580B21082918A164B4907FBD51A88D5
:1009500092B242F400721A801A46118B114B890729
:10096000FBD41A8892B242F480721A80998A0D4A96
:10097000C907FBD594231382918A0A4B8907FBD5BB
:100980002122198B1A82998A064A0906FBD5108200
:10099000938A04495B07FBD50B889BB243F4007331
:1009A0000B8070470054004003490B89024A9B07A3
:1009B000FBD580B290817047003C0040014B80B273
:1009C00098817047003C0040124A136823F00103ED
:1009D000F0B4054613600846136813F00103FBD119
:1009E0000D4C0E4A0E4E23754FF4004740215760C0
:1009F00082F82F13B288606092B242F00202B28095
:100A0000236125601DB121692B46F0BC1847F0BC5D
:100A1000704700BFB8600240380A002000E100E0E3
:100A2000003C00400D4A136823F001031360136873
:100A300013F00103FBD10A490A4830B40B758288D0
:100A4000094C22F0020212044FF40045120C82807D
:100A5000C4F884500B6030BC704700BFB8600240DF
:100A6000380A0020003C004000E100E01C4A38B594
:100A700093681BB130BF9368002BFBD1194C184B06
:100A80004FF40045C4F884509060D160127D02F0AC
:100A9000FF0122B1134B4FF400425A6038BD124A95
:100AA00012481060DC681248546090609868D0600A
:100AB0000420506110681C6840F0010010609960CB
:100AC0001A69012182F001021A611975002CE1D026
:100AD00019695868A047034B4FF400425A6038BD6B
:100AE000380A002000E100E0B8600240502C01000C
:100AF0000C3C0040194B9A680AB100207047184A14
:100B000010B54FF40044C2F884409860D9601A7D53
:100B100002F0FF012AB1124B4FF400425A6001204B
:100B200010BD104A10481060DC6810485460906096
:100B30009868D0600420506110681C6840F0010083
:100B4000106099601A69012182F001021A61197519
:100B5000002CE0D019695868A047DCE7380A00206B
:100B600000E100E0B8600240502C01000C3C004065
:100B70001649174BCA6842F00062CA609A68FAB117
:100B8000144A154910B41160D86814495060916036
:100B90009968D1600421516111681C6841F001011C
:100BA0000020116098601A69012182F001021A6127
:100BB00019753CB11969586823465DF8044B18470C
:100BC0001A7570475DF8044B704700BF0060024023
:100BD000380A0020B8600240502C01000C3C004054
:100BE0002DE9F04182B041B34FF400512B482C4F16
:100BF00011F08AFE4FF40041284811F087FE294E7B
:100C0000294C31682068DFF8AC8007F0A9FA256824
:100C100031680346C91A1D44002300933160D8F897
:100C200000002560324621463B4607F00BFBC0B171
:100C300002300ED002B0BDE8F0814FF400411748F9
:100C40001A4F11F061FE4FF40051144811F05EFE8E
:100C5000D5E7174B1969384602B0BDE8F041FFF7F8
:100C600005BF134CD8F80000214607F08FFA6368DF
:100C70002169012BEFD100290DDB07EB8103A3EBE9
:100C800041023D1FB2F90000188032F90209588074
:100C9000043BAB42F6D149002161DCE7000C024085
:100CA000500A002034D4002038D40020502A0020DC
:100CB0003CD40020E8AE0020F0B52A4D83B00024DB
:100CC00006460F46284601AB01220DF103010194AF
:100CD0008DF8034004F08EF810B9019B012B02D06F
:100CE000012003B0F0BD013E772E10D801AB28469D
:100CF0003246394604F07EF810B1019B9E42EFD196
:100D00009DF8030068B101280DD00020E9E7A9682B
:100D10002846314404F0FEFC003018BF012003B027
:100D2000F0BDB855DDE7022E12D93B78FF2B13D06A
:100D30000023FC18791E0022023314F8120001F877
:100D4000010F9E4202F10102F6D80020B854C8E714
:100D5000002EEDD13246F8E77B78FE2B0CBF022344
:100D60000023E6E7C4AA00202DE9F04FADF50D7D84
:100D7000BA4B1393BA494FF4807315A8149304F037
:100D80009FFD002840F08C80B64CB74D2646A94602
:100D9000B64817F04FFD002800F081800DA915A876
:100DA00004F0AAFE00287BD19DF83D30002B77D0BF
:100DB0002E2BEDD0139B1A780AB90DF13D039DF847
:100DC0003C20D006E4D40DF5B47AA949A44A504693
:100DD0001AF03AF950462E211AF0ACF90028D7D073
:100DE0005045D5D0471C3946A24818F06DFF002861
:100DF0005AD1DFF8AC82A04F9B48C8F800704FF47E
:100E0000005351460122236003F0FEFD8646002870
:100E1000BED104AB07A90A2293488DF878E08DF87B
:100E2000F0E0CDF810E003F0E5FF10B9049B0A2BC9
:100E300079D00DF1280A53464FF400528E498A4862
:100E400003F0D8FF07F086F98C4A022110600023D6
:100E5000062240F20F10FFF7B3F9894B1878FFF71D
:100E600053FDFFF7F5FC00218648FFF7ADFD03E0D9
:100E70002368B3F5805F24DB7C4817F0DBFC002897
:100E8000F6D18346FFF7CEFD5B460622022140F2F3
:100E90000F10FFF795F95846FFF736FD78E7032066
:100EA0000DF50D7DBDE8F08F3946774818F00CFF41
:100EB00000289ED03946754818F006FF002898D0C3
:100EC00066E73268D8F800106B4818F055FE3368B2
:100ED00031686548C8F80070C3F5005B5A4639446C
:100EE000534603F087FFDAF80020694B4FF40051B6
:100EF0009345316003D810B91B69DA07BCD5FFF7F9
:100F000091FD06220023022140F20F10FFF758F94D
:100F10000020FFF7F9FC544804F064FB5C4A1369B5
:100F2000DB07FCD434E79DF81C30492B07D08346FF
:100F30000DF1280A59464C4804F0ECFB7BE79DF87C
:100F40001D30442BF3D19DF81E30332BEFD19DF88B
:100F500022109DF823309DF825B09DF824209DF89F
:100F60001F00039049059B0301F07E6103F4FE130B
:100F70000B439DF821100BF07F0BD20143EA0B03CA
:100F800002F47E52490643EA020B0DF1280A00F1F1
:100F90009B8002230193CDF808B004AB0A2251468E
:100FA000314803F027FF834600287FF444AF049ABA
:100FB0000A2A7FF440AF9AF80020002A00F08180CE
:100FC0000322344950461AF065F8002879D0039B73
:100FD000DAF800208DF818B0032B05922FD0042BDF
:100FE00015D19AF804009AF805109AF806209AF894
:100FF000073000F07F0001F07F0101EBC01102F02B
:101000007F0202EBC11203F07F0303EBC21B2249F4
:1010100005A818F059FE00284DD005A81F4918F062
:1010200053FE00283ED158463CA9FFF745FE002854
:1010300047D1019B013B0193002BAED141E09AF8CF
:1010400005309AF804109AF8062003EB01219AF86B
:10105000073002EB012203EB022BD8E7504A0020B5
:10106000F035020834D40020C4AA0020F0AE0020DD
:10107000D4350208DC350208A0B30020E8AE002019
:1010800001000020E10B0008E0350208E435020809
:1010900000000240E8350208EC350208F435020889
:1010A00038D40020A9681D48594404F033FB0028B7
:1010B0003FF473AFBFE658461EA9FFF7FDFD0028B9
:1010C000B7D0DDF808B035E7514604AB0422134829
:1010D00003F090FE9AF800E09AF801109AF80300E5
:1010E0009AF80230D9F808204FEA4E5E89030EF0D4
:1010F0007E6E01F4FE1100F07F004EEA0101DB017B
:10110000014303F47E530B43111F1944034804F0B9
:1011100001FB00283FF43DAF8DE600BFC4AA0020CC
:1011200010B52E2104461AF005F818B1844201D0FA
:10113000013010BD004810BDF0350208054B1A689B
:1011400012B11A68013A1A60034A13680133136036
:10115000704700BFC0AA0020ECAE002082B0044A55
:101160000190019B13601368002BFCD102B0704703
:10117000C0AA0020704700BF704700BFFEE700BF55
:10118000FEE700BFFEE700BFFEE700BF704700BFFD
:10119000704700BF704700BFFFF7D0BF022010F0BC
:1011A000BDB900BF012010F0B9B900BF00F062BAAC
:1011B000014817F063BB00BFF0AE0020002070476D
:1011C0000020704701207047002070474FF0FF302B
:1011D000704700BF00207047064B186838B10144C3
:1011E0006A46914294BF19604FF0FF307047024841
:1011F0001860F4E7584B00209CE1002070B5161EE3
:101200000EDD0C468D1914F8011B064814F092FEF1
:101210004021044814F052FF0028F9D0AC42F2D12A
:10122000304670BD0044004039493A4BD1F888201F
:10123000394842F47002C1F888201A68002142F04F
:1012400001021A6099601A6822F0847222F48032D6
:101250001A6058601A6882B022F480221A60D9603D
:10126000009101911A6842F480321A601A4603E034
:10127000009BB3F5A06F09D0136803F4003301930A
:10128000009B01330093019B002BF1D0214B1B6885
:1012900013F4003318BF01230193019B012B05D0E8
:1012A0001B4B4FF000629A6002B07047194B1B490C
:1012B0001A6C1B4842F080521A640A6842F4804259
:1012C0000A609A689A609A6842F400429A609A6842
:1012D00042F4A0529A6058601A6842F080721A6014
:1012E0001A4611680B4B8901FBD50E4A40F2056185
:1012F00011609A6822F003029A609A6842F0020232
:101300009A601A46936803F00C03082BFAD1C7E7DA
:1013100000ED00E000380240103000240070004072
:1013200008544007003C02401848836803F00C034F
:10133000042B28D0082B09D0154B144A1549926864
:10134000C2F303128A5CD3400B6170474368416863
:1013500013F4800F436818BF0F4801F03F020CBF21
:101360000B49B0FBF2F1C3F3881308BFB1FBF2F1F4
:1013700001FB03F2054B5B68C3F3014301335B00E0
:10138000B2FBF3F3D9E7044BD7E700BF00380240C4
:101390000024F4000400002040787D01704700BF65
:1013A000F0B501212E4D85B0084612F019FA00263D
:1013B00002230327284602A94FF4D0528DF80C309F
:1013C00002928DF80D708DF80E608DF80F6011F09F
:1013D00019FA28460A22092111F0A6FA28460A22FB
:1013E0000B2111F0A1FA28460A220C2111F09CFAD7
:1013F00001244FF4806302A9284602938DF80D70F2
:101400008DF80E408DF80F4011F0FCF90A221146BC
:10141000284611F089FA21464FF4804012F018FA5C
:101420002146802012F0EAF931464FF000600EF0BC
:1014300069F84FF4A0600EF023F81C2301A88DF882
:1014400004308DF805608DF806408DF807400EF0E9
:1014500021F82146204612F0EDF905B0F0BD00BF9D
:101460000000024010B54FF4C06082B00EF008F8E2
:10147000012401A843238DF804308DF805408DF830
:1014800006408DF807400EF005F81722022301A848
:101490008DF805408DF807408DF804208DF8063052
:1014A0000DF0F8FF02B010BD19B10121034811F091
:1014B0002DBA0121014811F027BA00BF00080240EF
:1014C00070B5012186B0042012F08AF901250026AA
:1014D000022301A925488DF8093001958DF808509F
:1014E0008DF80A608DF80B60214C11F08BF92946BC
:1014F0001E4811F009FAC82331464FF0804023609E
:1015000013F0A0FE324629464FF0804014F0C8FA8E
:1015100042F6DF62052303A94FF080400492ADF844
:101520000C30ADF81460ADF80E6013F0DDFD294607
:101530004FF0804014F0D6FA29464FF0804013F067
:101540005BFE29464FF080402A4614F0A9FA29464E
:101550004FF0804013F076FE21680029FCD14FF057
:10156000804013F06FFE06B070BD00BF000802405F
:101570005C4B002030B51E4C85B0034600214FF077
:101580008040236013F05EFE002201214FF0804076
:1015900014F086FA0B250023052201A94FF08040A4
:1015A000ADF80420ADF80C30ADF80630029513F01C
:1015B0009BFD01214FF0804014F094FA01214FF07F
:1015C000804013F019FE012211464FF0804014F0C4
:1015D00067FA01214FF0804013F034FE21680029A2
:1015E000FCD14FF0804013F02DFE05B030BD00BFA0
:1015F0005C4B002030B51E4C85B0034600214FF0F7
:101600008040236013F01EFE002201214FF0804035
:1016100014F046FA42F6DF650023052201A94FF0D7
:101620008040ADF80420ADF80C30ADF806300295DE
:1016300013F05AFD01214FF0804014F053FA0121BC
:101640004FF0804013F0D8FD012211464FF080404A
:1016500014F026FA01214FF0804013F0F3FD2168C9
:101660000029FCD14FF0804013F0ECFD05B030BDF7
:101670005C4B002008B501214FF0804014F026FAA1
:1016800000B908BD01214FF0804014F02BFA064B41
:10169000196819B11A68013A1A6008BD4FF0804004
:1016A000BDE8084013F0CEBD5C4B0020704700BF82
:1016B000704700BF704700BF01207047704700BFF0
:1016C00010B50A4C4FF48041204611F01DF9204618
:1016D0004FF4004111F01AF920464FF4805111F0F7
:1016E00015F9034B00221A6010BD00BF000C024028
:1016F000504B002010B5084C4FF48041204611F0AB
:1017000005F920464FF4004111F0FEF86420BDE8D1
:101710001040FFF76FBF00BF000C024010B50A4930
:10172000002003F061F958B9084A136804460133F0
:10173000074813604FF4805111F0E6F8204610BDC1
:101740004FF0FF3010BD00BFC8D80020504B002024
:10175000000C0240704700BF704700BF704700BFD9
:10176000704700BF704700BF704700BF704700BFA1
:10177000704700BF704700BF08B54FF4FA70FFF71D
:1017800039FF0849002003F02FF950B9064A0748ED
:101790001368013313604FF48051BDE8084011F025
:1017A000B3B808BDC8D80020504B0020000C024040
:1017B0001C39020800000020380A0020380A0020E6
:1017C0009CE10020002070472DE9F041C76A8F425C
:1017D00004D003790E46044673B916B90020BDE85B
:1017E000F0810123324604F13001607815F026F8CB
:1017F00020BBE662BDE8F08100F1300841460123DC
:101800003A46407815F04EF8C0B9A369226A2071B3
:101810001A449742E1D2E578012D01D8DDE7A369AA
:1018200060781F44013D3A4601234146EDB215F070
:1018300039F8012DF3D1002ED0D0D2E70120BDE838
:10184000F08100BF03692DE9F04101F10902002B8D
:1018500000F08B8043691D7B1C782E0700F1AD8062
:10186000202C44D0052C08BFE5244C725C78202C39
:1018700001F10A023BD0052C08BFE5248C729C784C
:10188000202C01F10B0232D0052C08BFE524CC72CC
:10189000DC78202C01F10C0229D0052C08BFE524AE
:1018A0000C731C79202C01F10D0220D0052C08BFEF
:1018B000E5244C735C79202C01F10E0217D0052C25
:1018C00008BFE5248C739C79202C01F10F020ED007
:1018D000052C08BFE524CC73DC79202C01F1100223
:1018E00005D0052C08BFE5240C7401F111021C7A07
:1018F000202C2CD02E241470ED0602F101061C7A47
:1019000040F1D280202C00F0F080A4F14105192D87
:101910009CBF2034E4B254705C7A202C02F10205A2
:1019200000F0D180A4F14105192D9CBF2034E4B210
:1019300094709C7A202C02F1030500F0C480A4F17D
:101940004105192D9CBF2034E4B2D4700432DC7AF6
:101950000C72DC690C605D7E1C7E44EA05248C8080
:10196000DC7D9B7D43EA0423CB80002414708F69C7
:101970000FB30369E3B1028C4FF6FF739A4217D09D
:10198000C6693088A0B10D4607F1FF380BE0EB695E
:10199000013BA34204F101040ADD08F8010F36F807
:1019A0001400234628B1002106F096FB0028EED152
:1019B00000230022FA54BDE8F081202C97D0052C9A
:1019C00000F08380A4F14102192A01D82034E4B246
:1019D0004C725C78202C01F10A0288D0052C76D05C
:1019E000A4F14102192A01D82034E4B28C729C7807
:1019F000202C01F10B023FF47AAF052C69D0A4F141
:101A00004102192A01D82034E4B2CC72DC78202CAF
:101A100001F10C023FF46BAF052C5CD0A4F1410244
:101A2000192A01D82034E4B20C731C79202C01F15E
:101A30000D023FF45CAF052C4FD0A4F14102192AEE
:101A400001D82034E4B24C735C79202C01F10E02F1
:101A50003FF44DAF052C42D0A4F14102192A01D820
:101A60002034E4B28C739C79202C01F10F023FF4F6
:101A70003EAF052C35D0A4F14102192A01D82034FB
:101A8000E4B2CC73DC79202C01F110023FF42FAFCB
:101A9000052C28D0A4F14102192A01D82034E4B23F
:101AA0000C7401F1110222E7202C1ED054705C7AD4
:101AB000202C02F1020506D094709C7A202C02F1B1
:101AC00003057FF442AF2A4641E7E52480E7E52499
:101AD0008CE7E52499E7E524A6E7E524B3E7E524C8
:101AE000C0E7E524CDE7E524DAE732462FE700BF7B
:101AF00010B504460A46407804F13001012314F081
:101B00009DFE08B1032010BD94F82F1294F82E32D8
:101B10004AF6552243EA0123934201D0022010BD28
:101B2000D4F86630064A23F07F439342F7D0D4F8C6
:101B3000823023F07F43981A18BF012010BD00BFE8
:101B400046415400F8B5C56A04460DB103795BB946
:101B50002378032B2AD000226078114614F0DAFE95
:101B6000003018BF0120F8BD00F1300739460123CD
:101B70002A46407814F096FEB0B9A369226A207113
:101B80001A449542E4D2E678012E01D8E0E7A36931
:101B900060781D44013E2A4601233946F6B214F00E
:101BA00081FE012EF3D1D3E70120F8BD6379002B2C
:101BB000D1D0002604F13005314628464FF400729A
:101BC000E66219F0D1F92369E26884F81832C3F3A8
:101BD00007201F0C1B0E84F8190284F81B32100C0E
:101BE0005523C2F3072C4FEA126E294684F81A7265
:101BF00084F81C225225412284F81E0284F82E32D9
:101C000061207223AA2784F8320084F8170284F82E
:101C1000332084F8162284F8143284F8153284F8BC
:101C20001DC284F81FE284F82F7284F8305084F8C3
:101C3000315001236269607814F034FE66718AE7DE
:101C40002DE9F04F0378D0F82080022B83B00446B2
:101C50000D46164600F09C80032B6AD0012B05D060
:101C600002200123237103B0BDE8F08FD0F82CA02F
:101C7000428901EB5109B9FBF2F74744574508D0B7
:101C80000279002A40F00E81002F40F038816289ED
:101C9000E76A511E15F0010A09EA010300F0998074
:101CA000234409F1010993F83000B9FBF2F200F086
:101CB0000F0002EB0805BD4240EA06124FF001009A
:101CC00083F83020207100F04D8104F1300B59462B
:101CD00001233A46607814F0E5FD002840F01781B2
:101CE000A369226A20711A44BA4214D994F8038075
:101CF000B8F1010F01D80EE0A36960781F4408F124
:101D0000FF383A46012359465FFA88F814F0CAFDB5
:101D1000B8F1010FF0D1002D40F018816389013B2B
:101D200009EA0309BAF1000F64D0C6F30716A1440B
:101D300068E04389D0F82C909F08B1FBF7F747443F
:101D40004F4506D00379002B60D1002F40F0F08082
:101D50006389ADB2AD00013B2B40E118C6F3072209
:101D600081F8306081F831206389013B2B402344A6
:101D7000320C83F832206389013B1D402544360E26
:101D80000020012385F83360237103B0BDE8F08F94
:101D90004389D0F82C905F08B1FBF7F747444F45D3
:101DA00006D00379002B57D1002F40F0B68063890D
:101DB000ADB2013B03EA4503E118C6F30722002058
:101DC000012381F8306081F83120237103B0BDE830
:101DD000F08F234409F10109B9FBF2F202EB080587
:101DE000BD424FF0010283F8306022717FF46DAF85
:101DF00001EA0909A144C6F3032699F8303023F01B
:101E00000F031E4389F8306000202AE700F1300AF2
:101E1000514601234A46407814F044FD002876D10B
:101E2000A369226A20711A4491458ED294F80380E6
:101E3000B8F1010F01D888E7A3696078994408F1E7
:101E4000FF384A46012351465FFA88F814F02AFD0C
:101E5000B8F1010FF0D178E700F1300A51460123C3
:101E60004A46407814F01EFD002850D1A369226A2A
:101E700020711A44914597D294F80380B8F1010F6C
:101E800001D891E7A3696078994408F1FF384A4680
:101E9000012351465FFA88F814F004FDB8F1010FF0
:101EA000F0D181E700F130020092114640785246AD
:101EB00014F0F8FC58BBA369226A20711A449245B9
:101EC000BFF4E2AE94F803B0BBF1010F7FF6DCAED5
:101ED000CDF80480DDF8008000E0A36960789A44C2
:101EE0000BF1FF3B5246012341465FFA8BFB14F096
:101EF000D9FCBBF1010FF0D1DDF80480C4E6012369
:101F00003A4604F13001607814F098FCD8B1012011
:101F10000123237103B0BDE8F08F01233A4604F199
:101F20003001607814F08AFC0028F0D1E7623EE7C7
:101F300001233A4604F13001607814F07FFC002858
:101F4000E5D1E76204E7E7626289A2E65946012328
:101F50002A46607814F072FC0028D8D16389E562C3
:101F6000013BDDE601EA0909DFE600BF2DE9F84F94
:101F700004460E4600F1300AE3699E426AD2012E01
:101F80002ED92378256A022B06D0032B65D0012B8E
:101F900029D00120BDE8F88F6389E76A5A08B6FBAB
:101FA000F2F21544BD4207D02379002B40F0AE80F9
:101FB000002D40F0A0806389B2B2013B03EA4203E6
:101FC000E21892F8315092F8303043EA0525002D9E
:101FD00040D0012D04D0012E02D9E3699E425FD387
:101FE0000220BDE8F88FE76A628906EB5608B8FB65
:101FF000F2F9A9444F4508D02279002A40F0D28056
:10200000B9F1000F69D16289E76A511E08EA01033C
:10201000234408F10108B8FBF2F202EB0509B945C7
:1020200093F8305009D02379002B40F0F180B9F1BA
:10203000000F40F0DF806189013908EA0108A044FF
:1020400098F8303045EA0325F30740F1D0802D0998
:10205000002DBED10020BDE8F88F6389E76A9A0899
:10206000B6FBF2F21544BD4204D02379002B73D1A4
:1020700045BB6389B2B2013B03EA820303F130013D
:10208000214423448A78C8784D7893F8303012047C
:1020900042EA006242EA05251D4325F0704596E7B5
:1020A000314600222046FFF7CBFD48B923695A1C70
:1020B00004D0013323614FF0010363712E465BE7C7
:1020C000BDE8F88F01232A465146607814F0B6FB2C
:1020D00000287FF45EAFE562CBE701234A46514614
:1020E000607814F0ABFB00287FF453AFC4F82C9059
:1020F0004F46628989E701232A465146607814F0E9
:102100009DFB00287FF445AFE56254E701233A4682
:102110005146607814F0C6FB00287FF43AAFA369FB
:10212000226A20711A449742BFF442AF94F80380A8
:10213000B8F1010F01D83BE7A36960781F4408F1AB
:10214000FF383A46012351465FFA88F814F0AAFB9B
:10215000B8F1010FF0D12BE701233A4651466078E0
:1021600014F0A0FB00287FF414AFA369226A207149
:102170001A449742BFF47CAF94F80380B8F1010F82
:1021800001D875E7A36960781F4408F1FF383A4623
:10219000012351465FFA88F814F084FBB8F1010F6F
:1021A000F0D165E73A465146607814F07BFB002891
:1021B0007FF4EFAEA369226A20711A449742BFF4FC
:1021C0001FAF94F803B0BBF1010F01D818E7A36962
:1021D00060781F440BF1FF3B3A46012351465FFAFA
:1021E0008BFB14F05FFBBBF1010FF0D108E7C5F3E7
:1021F0000B05ECE601234A465146607814F01EFBBD
:1022000000287FF4C6AE6189C4F82C90013914E728
:1022100001233A465146607814F044FB00287FF4CD
:10222000B8AEA369226A20711A44BA427FF6FFAEA3
:1022300094F803B0BBF1010F01D8F8E6A369607808
:102240001F440BF1FF3B3A46012351465FFA8BFBDB
:1022500014F028FBBBF1010FF0D1B9F1000F3FF4EE
:10226000EAAEC7E72DE9F84F0378056A022B04466A
:102270000E4667D0032B3ED0012B03D04FF0FF302A
:10228000BDE8F88FD0F82CA0418906EB5609B9FBC0
:10229000F1F808EB0507574500F033810279002A71
:1022A00040F09280002F40F0F6806189D4F82C80B5
:1022B0004A1E09EA0203234409F10109B9FBF1F1BD
:1022C0004F19474593F8305008D02379002B40F040
:1022D000F080002F40F017816289013A09EA020973
:1022E0004C44F30794F8300045EA002540F1198189
:1022F0002809BDE8F88F4389C76A9A08B1FBF2F252
:102300001544BD4207D00379002B40F08480002D96
:1023100040F0A9806389013BB6B203EA860606F164
:102320003003234426449A78D978587896F8303088
:10233000120442EA016242EA0020184320F0704091
:10234000BDE8F88F4389C76A5A08B1FBF2F2154419
:10235000BD4205D0037983B9002D40F09080638998
:10236000B6B2013B03EA4603E21892F8310092F854
:10237000303043EA0020BDE8F88F00F130094946CB
:1023800001233A46407814F08DFA00287FF476AFA6
:10239000A369226A20711A449742DDD294F803801F
:1023A000B8F1010F01D8D7E7A36960781F4408F19D
:1023B000FF383A46012349465FFA88F814F072FA6A
:1023C000B8F1010FF0D1C7E700F13008414652469D
:1023D000407814F067FA00287FF450AFA369226AAE
:1023E00020711A449245BFF45DAF94F803B0BBF17D
:1023F000010F01D856E7A36960789A440BF1FF3BBF
:102400005246012341465FFA8BFB14F04BFABBF1B5
:10241000010FF0D146E700F13009494601233A4661
:10242000407814F03FFA00287FF428AFA369226AAD
:1024300020711A449742BFF46AAF94F80380B8F150
:10244000010F01D863E7A36960781F4408F1FF38E2
:102450003A46012349465FFA88F814F023FAB8F1A6
:10246000010FF0D153E701232A4604F130016078CF
:1024700014F0E4F900287FF401AFE5624AE7012394
:102480002A4604F13001607814F0D8F900287FF46E
:10249000F5AEE56263E701233A4604F13001607866
:1024A00014F0CCF900287FF4E9AEE762B846618900
:1024B000FEE604F1300B594601234246607814F0E1
:1024C000F1F900287FF4DAAEA369226A20711A4478
:1024D00042457FF6FEAE94F803A0BAF1010F01D891
:1024E000F7E6A369607898440AF1FF3A424601236F
:1024F00059465FFA8AFA14F0D5F9BAF1010FF0D112
:10250000E7E6B846D4E601233A4604F130016078A4
:1025100014F094F900287FF4B1AE6289E762013AC1
:10252000DCE6C5F30B00BDE8F88F00BF2DE9F04FE6
:1025300085B005460291D0F81CB041BBD0F80C9094
:10254000B9F1000F2CD0CB4598BF4FF0010905F130
:1025500030034C460193CDF800B0009B0134A342F8
:1025600021D8B9F1010F5AD90224EB69A34213D93A
:102570002B782E6A022B00F0DF80032B00F0868080
:10258000012B13D04FF0FF3005B0BDE8F08F0129CB
:1025900002D98B4500F21B81012005B0BDE8F08F08
:1025A0004FF00109D3E7012CDFD8F5E7EF6A6A891C
:1025B00004EB5408B8FBF2FAB244574506D02A7926
:1025C0007ABBBAF1000F54D16A89EF6A511E08EA4A
:1025D00001032B4408F10108B8FBF2F21644BE4295
:1025E00093F830B008D02B79002B40F00881002EF2
:1025F00040F0F8806989013908EA0108A84498F890
:1026000030304BEA032BE30740F14F814FEA1B13B5
:10261000002B00F02181012BBED0A1459DD10020CF
:10262000BBE73A460199687814F03CF90028A9D133
:10263000AB692A6A28711A449742C2D295F803B04E
:10264000BBF1010FBDD90394019C00E0AB69687830
:102650001F440BF1FF3B3A46012321465FFA8BFBF7
:1026600014F020F9BBF1010FF0D1039CBAF1000F77
:10267000AAD0012352460199687814F0DFF80028A7
:1026800080D1C5F82CA057466A899FE76B89EF6A0D
:102690009A08B4FBF2F21644BE4204D02B79C3B9B7
:1026A000002E3ED16B89A2B2013B03EA820303F103
:1026B00030022A442B449178D678507893F8302011
:1026C000090441EA066343EA0023134323F07043FD
:1026D0009EE7DDF804A0687801233A46514614F0DD
:1026E000E1F800287FF44EAFAB692A6A28711A44DA
:1026F0009742D5D295F80380B8F1010F01D8CFE702
:10270000AB6968781F4408F1FF383A460123514607
:102710005FFA88F814F0C6F8B8F1010FF0D1002E76
:10272000C0D0012332460199687814F087F8002858
:102730007FF428AFEE62B5E76B89EF6A5A08B4FB05
:10274000F2F21644BE4203D02B796BB9A6BB6B895B
:10275000A2B2013B03EA4203EA1892F831B092F8C0
:10276000303043EA0B2353E7DDF804A068780123F7
:102770003A46514614F096F800287FF403AFAB694F
:102780002A6A28711A449742E0D295F80380B8F17A
:10279000010F01D8DAE7AB6968781F4408F1FF3808
:1027A0003A46012351465FFA88F814F07BF8B8F1F5
:1027B000010FF0D1002ECAD001233246019968786A
:1027C00014F03CF800287FF4DDAEEE62BFE7FFF7BF
:1027D00049FD01287FF6E0AE83453FF6DEAEDDF829
:1027E0000890B4E6012332460199687814F026F87F
:1027F00000287FF4C7AE6989EE620139FCE6012347
:102800003A460199687814F04DF800287FF4BAAE82
:10281000AB692A6A28711A44BA427FF6E8AE95F885
:1028200003A0BAF1010F7FF6E2AE0394019C00E031
:10283000AB6968781F440AF1FF3A3A460123214602
:102840005FFA8AFA14F02EF8BAF1010FF0D1039C66
:10285000002E3FF4CFAEC5E7EB69A3427FF692AE00
:102860006FF0704221462846FFF7EAF900287FF40E
:1028700089AE029B7BB1012B1A467FF683AEEB69D2
:102880009A42BFF47FAE114628462246FFF7D8F998
:1028900000287FF477AE2B69EC605A1C08D0013B0E
:1028A00001222B6120466A7177E6CBF30B03AFE67A
:1028B000204672E670B50C468168C480012904D0B8
:1028C00005460068C369994201D3022070BDD9B999
:1028D0000278032A15D003890022A342EA60F4D9C2
:1028E0004389416A5A09B4FBF2F311FA83F1296171
:1028F00002FB13439BB2303000EB431068610020B1
:1029000070BD416A0029E6D042898678520916FBDB
:1029100002F6B6B2B44218D3A41BA4B20FE0FFF77C
:10292000A1FCA21B431C014692B221D00128CCD9A4
:102930002868C3698B42C8D9A64206D81446012923
:10294000C3D99942EBD3022070BD8A1E023B9A4242
:10295000E9603EBF8378816A02FB0311438928BF87
:1029600000215A09B4FBF2F311FA83F12961BFE7A0
:10297000012070BD2DE9F843C4880134A4B214B914
:102980000420BDE8F8830269002AF9D005460068F2
:1029900043895B09B4FBF3F703FB17439BB20E4675
:1029A000002B30D1E96801322A61002933D08278C6
:1029B000BFB2013A3A4226D1012902D9C3699942EC
:1029C00002D30220BDE8F883FFF74CFC012807463C
:1029D000F7D9421C2DD02868C369BB421FD9BE1E3F
:1029E000023B9E42EF603EBF8378826A06FB03266D
:1029F00043894FEA531328BF0026B4FBF3F203FBCD
:102A000012432E619BB2303000EB43136B61EC80BC
:102A10000020BDE8F8830289A242B1D9F3E7002E75
:102A2000AED0E968FFF782FD074628B90720BDE868
:102A3000F8830120BDE8F8830128C2D0431CF8D0F8
:102A400000212868FEF7C0FE0028F2D12B6803F1B0
:102A500030025B8901E002F8010B13F1FF33FAD277
:102A60002B68DA69BE1E023A96423BBF9A78996A91
:102A7000002206FB0212DA624FF000084FF0010953
:102A80000CE083F804902868FEF79EFE08F1010828
:102A90000028CED12B68DA6A0132DA629A785FFABE
:102AA00088FE72454FF000011846EAD8DA6ADB6901
:102AB000CEEB0202C26293E72DE9F04F85B0FF230F
:102AC0000468D0F810800193064699464FF6FF7BC4
:102AD000E56A454504D02379DBB9B8F1000F3CD154
:102AE000746923788BB1E27AE52B02F03F0104D0C0
:102AF00012073FD50F2900F0F4804FF0FF09F58849
:102B00000135ADB2002D40F0C780042005B0BDE80E
:102B1000F08F04F1300A514601232A46607813F001
:102B2000C1FE002840F0D980A369226A20711A44AE
:102B30009542D2D2E778012F01D8CEE7A369607819
:102B40001D44013F2A4601235146FFB213F0AAFE5D
:102B5000012FF3D1B8F1000FC2D00123424604F196
:102B60003001607813F06AFE002840F0B680C4F8A7
:102B70002C80B5E70F2900F0B480B9F1000F49D1DE
:102B8000DD0194F801C0A278E17894F804E0677957
:102B9000A07945EA53036344C3F3460545EAC315E8
:102BA00052FA85F2C2F3460545EAC21251FA82F2A0
:102BB000C2F3460141EAC2115EFA81F3C3F3460152
:102BC00041EAC31357FA83F7C7F3460343EAC7132F
:102BD00050FA83F7C7F34600E279217A637AA57A3F
:102BE00040EAC71052FA80F2C2F3460040EAC2122D
:102BF00051FA82F1C1F3460242EAC11253FA82F35A
:102C0000C3F3460242EAC31355FA83F3019ADBB2D7
:102C100093423DD0B369A6F820B0DA7AD2073FF5E7
:102C20006CAF21781A7891427FF467AF5978627857
:102C300091427FF462AFA1789A7891427FF45DAFC0
:102C4000E178DA7891427FF458AF21791A7991428C
:102C50007FF453AF61795A7991427FF44EAFA179F5
:102C60009A7991427FF449AFE179DA7991427FF420
:102C700044AF217A1A7A91427FF43FAF617A5A7A4F
:102C800091427FF43AAFA27A9B7A9A427FF435AFB1
:102C9000002005B0BDE8F08FD6F81080B8F1000F25
:102CA0003FF433AF346863895B09B5FBF3F203FB90
:102CB00012539BB253B9F16808F10108C6F81080AD
:102CC000002956D12289AA427FF61FAF04F13002B3
:102CD00002EB4313F5807361FAE6012005B0BDE80D
:102CE000F08FF569002D3FF40AAF5F063DD5617B9B
:102CF000F2880191328403F0BF0994F80DA0019B82
:102D00009A457FF4FAAE2378DFF80081CDF80C9075
:102D100003F0BF03013B03EB430103EB810108F127
:102D20000D070120CDF804A08946029603E05B451B
:102D300068D1474529D018F8013BE218E35C527886
:102D400043EA02230028F2D0184605F0E9F9B9F168
:102D5000FE0F824609F1010654DC35F8190005F032
:102D6000DFF982454ED1B146E3E74B457FF4C5AE6E
:102D7000C3E7A07892B201381042A7D1012902D945
:102D8000E36999421AD30220C0E62378DDF804A053
:102D9000029E5C064946DDF80C9008D538B135F83E
:102DA000113023B1CDF804A04FF0FF09A7E609F1D7
:102DB000FF395FFA89F9CDF804A0A0E62046FFF7B5
:102DC00051FA0128DFD9431C87D03468E36998425F
:102DD000BFF49BAE023B821E9A42F0603EBFA36AE4
:102DE00094F8028002FB083863894FEA531328BF26
:102DF0004FF00008B5FBF3F203FB1253C6F8108046
:102E00009BB263E7DDF804A0029ECBE778FC0108E3
:102E10002DE9F04F8469C5696168A2688FB0834667
:102E200020680BAB07C39DF837300793D80740F1F4
:102E30006B810023E372CBF81C309DF83030009397
:102E40009DF8313003939DF8323001939DF8333073
:102E500004939DF8343002939DF8353005939DF826
:102E60002C909DF836309DF82D809DF82E709DF8A1
:102E70002F6006934FF0010A9DF8003023719DF8F2
:102E80000C3063719DF80430A3719DF81030E3712C
:102E90009DF8083023729DF814306372BAF1050F63
:102EA0009DF8183084F8009084F80180A770E670CF
:102EB000A37240F211812A8853462946D80340EA7A
:102EC000530312FA83F331F8022F9BB2002AF5D193
:102ED000AD49A1FB0302D20802EB8200A3EB400044
:102EE000303092B28DF82B00002A00F09F83A1FBB6
:102EF00002E0C00800EB8000A2EB4000A34AA2FB66
:102F000003E23030C2F34F128DF82A00002A00F09D
:102F1000ED80A1FB02E0C00800EB8000A2EB4000C6
:102F20009B4AA2FB03E23030C2F38F128DF82900D6
:102F3000002A00F0D980A1FB0201C90801EB810140
:102F4000A2EB4101934AA2FB03233031C3F34F3379
:102F50008DF82810002B00F0CB8030338DF827300F
:102F600002210EAB581823787E22202B00F8142C57
:102F700008BF002221D06378202B00F05D82022957
:102F800000F0B080A378202B00F05482032900F0D9
:102F9000A980E378202B00F04B82042900F0A28066
:102FA0002379202B00F04282062940F0A380637928
:102FB000202B18BF062200F09D80531C03F1010E48
:102FC000224410F8130C4FF07E0CBEF1070F82F86C
:102FD00000C001F10202E05453DC082A03F10200B0
:102FE0006BD00DF1380C6244082812F8142C04F848
:102FF0000E2001F1030C44D0BCF1080F03F10303D0
:10300000204400F010820EAA94440A1D1CF8141CDF
:103010000170082B35D0082A03F1010146D00DF1CB
:10302000380E964408291EF814EC04F803E002F167
:10303000010026D0082803F10203214400F0F081AA
:103040000DF1380E7044023210F8140C0870082B81
:1030500017D0082A03F1010137D00EA81044072920
:1030600010F8140CE05402F101020AD1082A1CBF26
:103070000EABD21804F1070114BF12F8143C202340
:103080000B7000215846FFF715FCA8BB5846FFF708
:1030900013FD88BB0AF1010A1FFA8AFABAF1640F1C
:1030A0007FF4EAAE07200FB0BDE8F08F202008299A
:1030B000E054E6D002332144C8E72021082804F870
:1030C0000E10DED003332044A2E720220729E25469
:1030D000D7D11346E11DD3E70AF130038DF82B3029
:1030E00006213EE70A4668E704213AE7052138E76A
:1030F000032136E7052260E70428D4D19DF81C306F
:10310000E372079BCBF81C50990700F167810127F8
:1031100000215846FFF7CEFB0028C4D10090064698
:10312000BA46DBF80040DBF81070E56ABD4203D018
:10313000237993B9002F40D1DBF814301B78E52BAD
:103140004BD0002B49D0002601215846FFF712FC36
:103150000028E6D00FB0BDE8F08F04F130094946F1
:1031600001232A46607813F09DFB002840F054812B
:10317000A369226A20711A449542DBD294F8038035
:10318000B8F1010F09D8D5E7CDCCCCCC1F85EB51D8
:10319000D34D62105917B7D1A36960781D4408F167
:1031A000FF382A46012349465FFA88F813F07AFB74
:1031B000B8F1010FF0D1002FBED001233A4604F13F
:1031C0003001607813F03AFB002840F02581DBF8ED
:1031D0001430E7621B78E52BB3D116B9BBF8063083
:1031E00000930136B6B2B245AED15746012F00F07A
:1031F000BD8000995846FFF75DFB00287FF453AF70
:10320000DBF818301A7859789D7893F80AA0D40121
:1032100044EA52020A44C2F3460141EAC21255FA94
:1032200082F2C2F34605DC78197945EAC21254FAF3
:1032300082F4C4F3460242EAC41251FA82F4C4F39F
:1032400046015A799D7941EAC41152FA81F2C2F3DA
:10325000460141EAC21255FA82F2C2F34604D97914
:103260001D7A44EAC21251FA82F1C1F3460242EADF
:10327000C11255FA82F15C7AC1F3460242EAC113E7
:1032800054FA83F3C3F3460242EAC3137C1E5AFA8C
:1032900083FAA4B281465FFA8AFADBF80050DBF8C1
:1032A0001080EE6A464507D02B79002B40F0C6808F
:1032B000B8F1000F40F0E880E5B26A1EDBF8143088
:1032C000DBF81C6083F80DA002EB420102EB8102E7
:1032D0004FF00F01D97283F80C9083F81A9083F89D
:1032E0001B9036F8121059704F1E080ABFB24FF6E5
:1032F000FD718F4298704FEA420040F2D180FF2268
:10330000DA701A71FF225A719A71FF22DA711A72F9
:10331000FF225A729A72FF229A73DA73FF221A748A
:103320005A74FF229A74DA74FF221A755A75FF22B2
:103330009A75DA75FF221A765A76FF221A775A772B
:10334000FF229A77DA7745F040051D70DBF80030F0
:103350004FF0010200211A715846FFF70BFB0028BD
:103360007FF4A1AE013CA4B2002C96D1DBF8004062
:10337000DBF81070E56ABD4205D02379002B40F0E0
:103380001F81002F3ED1DBF814402022002120466F
:1033900017F0EAFDDBF81830211D1A1D944238BFE2
:1033A0008B42C0F0328144EA0302920740F02D8143
:1033B0001A6822605A6862601A7A22725A7A6272B5
:1033C0009B7AA372DBF81830DB7A03F018032373BF
:1033D000DBF8003001221A71002064E62B88002BF4
:1033E0003FF495AE002301339BB235F81320002A39
:1033F000F9D18F4F193387FB0327DB17C3EBA707DF
:10340000BFB285E601233A4604F13001607813F03B
:1034100015FA002800F0F78001200FB0BDE8F08F0A
:103420000246202012E662462021F1E50422C4E58E
:103430000322C2E50222C0E50122BEE505F1300308
:103440000093194632460123687813F02BFA0028BE
:10345000E2D1AB692A6A28711A449642BFF428AFB8
:10346000EF78012F01D823E7AB69009968781E44F3
:10347000013F32460123FFB213F014FA012FF3D1BA
:10348000B8F1000F3FF418AF0123424605F13001B7
:10349000687813F0D3F90028BED1C5F82C800BE76B
:1034A00001324FEA420C36F81270DF7007F1FF3E2E
:1034B0001FFA8EFE3F0A8E451F713FF623AF06EBC3
:1034C0000C0257885F7107F1FF3E1FFA8EFE3F0A1C
:1034D0008E459F713FF619AF9788DF7107F1FF3E68
:1034E0001FFA8EFE3F0A8E451F723FF611AFD78836
:1034F0005F7207F1FF3E1FFA8EFE3F0A8E459F72F4
:103500003FF609AF17899F7307F1FF3E1FFA8EFE42
:103510003F0A8E45DF733FF601AF57891F7407F1ED
:10352000FF3E1FFA8EFE3F0A8E455F743FF6F9AEEE
:1035300097899F7407F1FF3E1FFA8EFE3F0A8E4562
:10354000DF743FF6F1AED7891F7507F1FF3E1FFA12
:103550008EFE3F0A8E455F753FF6E9AE178A9F756E
:1035600007F1FF3E1FFA8EFE3F0A8E45DF753FF6DC
:10357000E1AE518A197601F1FF3E1FFA8EFE4FF639
:10358000FD77090ABE4559763FF6D7AE918A19777D
:1035900001F1FF3E1FFA8EFE090ABE4559773FF63C
:1035A000CFAED28A9A77511E89B2120AB942DA771F
:1035B0003FF6C9AE3044428B002A3FF4C4AEC4E6A5
:1035C00004F13008414601232A46607813F06AF975
:1035D00000287FF421AFA369226A20711A44954222
:1035E000BFF4CFAEE678012E01D8CAE6A3696078B1
:1035F0001D44013E2A4601234146F6B213F052F91A
:10360000012EF3D1BDE6E762BDE61A7822705A7842
:1036100062709A78A270DA78E2701A7922715A7917
:1036200062719A79A271DA79E271C5E6062198E4AD
:103630004FECC44E2DE9F04F0B782F2B83B00F4683
:10364000054600F03C815C2B00F039810024AC6021
:1036500038781F2840F23A8180B21F28EE6940F284
:10366000F2802F282FD05C282DD00121A6F1020A4C
:10367000B946012404F030FD08B37F2809D8222878
:103680001DD0A34A01E0984219D012F8013F002B47
:10369000F9D12AF8020F19F8010F1F2804F10103CC
:1036A00040F2D3802F2810D05C280ED0B3F5807F55
:1036B00005D001211C4604F00FFD0028DDD10620B5
:1036C00003B0BDE8F08F012300241F444FF0000A2F
:1036D000002CF4D006EB440232F8023D202B01D03E
:1036E0002E2B02D1013CF7D1E9E7AB6920224FF044
:1036F000000926F814901A705A709A70DA701A71CC
:103700005A719A71DA711A725A729A7206EB4402FD
:10371000B31E01E009F1010933F8020F2028F9D0A6
:103720002E28F7D0B9F1000F01D04AF0030A134652
:1037300033F8022D2E2A01D0013CF9D100239B46FB
:103740004FF0080809F1010998B3202820D02E284D
:103750001CD0434524DAA14500F08A807F2800F27E
:1037600094802B2800F0A0806A4A02E0814200F099
:103770009B8012F8011F0029F8D1A0F141011929FD
:1037800000F2BC804BF0020BC0B290E0A14505D026
:103790004AF0030A494636F81100D3E7434567DB90
:1037A000B8F10B0F00F09A80A14564D04AF0030AEB
:1037B00061DDAB691978E52900F09980B8F1080F4F
:1037C00004BF4FEA8B0B5FFA8BFB0BF00C020C2A49
:1037D00072D00BF0030103296ED01AF0020F0AD148
:1037E0000BF0030BBBF1010F08BF4AF0100A042ACB
:1037F00008BF4AF0080A83F80BA000212846FFF70B
:1038000059F830BB2846FFF757F9AB69DB7A03F06C
:103810000403DBB210BB002B7FF452AF6B69DA7A82
:10382000D20621D55C7D197DD87E9A7EEE6942EA6A
:10383000002341EA042143EA0143AB60387880B2B7
:103840001F283FF60EAF012300241F444FF0040A47
:103850003EE7AB69DB7A03F00403DBB204287FF4B4
:103860002FAF002B7FF42CAF052003B0BDE8F08F05
:10387000B8F10B0F32D04FEA8B0B5FFA8BFB21466E
:10388000A1464FF00B08082385E70021019304F0BF
:1038900023FC019B78B3204A10444AF0020A10F836
:1038A000700C00287FF45DAF4AF0030A5F20A9691D
:1038B000C854494601336EE74AF0020A8DE70137E2
:1038C0000024AC6038781F283FF6C6AE2146284653
:1038D000FEF7F0FF6C6103B0BDE8F08FAB691A78BA
:1038E000E52A4AF0030A7FF470AF4FF00B08052178
:1038F0001970AB6962E74AF0020AD5E7A0F16101ED
:10390000192997BF2038C0B2C0B24BF0010BCEE7E7
:10391000FC3502080836020878FC01082DE9F84F4A
:1039200007694FF0FF0B0646DA460420002F00F02F
:10393000F8803468E56ABD420FD0237904F130097C
:10394000002B40F0F480494601233A46607812F09B
:1039500075FF002840F0C180E7627269137893B167
:10396000E52B08D02E2B06D0D17A0C0701F03F00B2
:103970000ED50F280FD04FF0FF0AF4880134A4B2FF
:10398000002C40F0AF80042000233361BDE8F88FA5
:103990000F2840F00281580640F1EE80F18892F83D
:1039A0000DB0318403F0BF03547B5C45E3D1117843
:1039B00095785078D6F81CC001F03F01013901EB31
:1039C000410701EB8701FE2940EA052500F3ED8060
:1039D0002CF81150D078177940EA0727481C002DA1
:1039E00040F0E7804FF6FF718F4240F0DE8092F8A2
:1039F0000680517941EA08284FF6FF71884540F06A
:103A0000D48092F808E0D17941EA0E2E4FF6FF718A
:103A10008E4540F0CA80977A517A41EA07274FF6DF
:103A2000FF718F4240F0C18092F80FE0917B41EA34
:103A30000E2E4FF6FF718E4540F0B78092F8118040
:103A4000117C41EA08284FF6FF71884540F0AD80AF
:103A5000D77C917C41EA07274FF6FF718F4240F0F7
:103A6000A48092F815E0117D41EA0E2E4FF6FF7109
:103A70008E4540F09A80D77D917D41EA07274FF629
:103A8000FF718F4240F0918092F819E0117E41EA77
:103A90000E2E4FF6FF718E4540F08780577F117FC5
:103AA00041EA07274FF6FF718F427ED192F81FE05F
:103AB000917F41EA0E2E4FF6FF718E4575D1127837
:103AC000510605D5FF2870D04FF000022CF81020C9
:103AD000013B5FFA83FAA3464FE7002301203361DD
:103AE000BDE8F88F3769002F3FF44DAF3068438948
:103AF0005B09B4FBF3F203FB12439BB243B9F168D9
:103B00000137376100293BD10289A2427FF63BAFE2
:103B1000303000EB43137361F4800020002F7FF4FA
:103B200008AF00287FF430AF0020BDE8F88F494689
:103B300001232A46607812F0B5FE0028CDD1A36992
:103B4000226A20711A449542BFF4FDAE94F80380B6
:103B5000B8F1010F01D8F6E6A36960781D4408F1B9
:103B6000FF382A46012349465FFA88F812F09AFE88
:103B7000B8F1010FF0D1E6E69A457FF4FCAE13E709
:103B8000857892B2013D1542C2D1012903D9C3699A
:103B90009942C0F0F6800220F6E6BAF1000F00F07C
:103BA000A7804FF6FF733384BEE7A3464FF0FF0AAA
:103BB000E3E6FF28F9D02CF8107092F8068092F80E
:103BC00005E045004EEA0828881C002F3FF414AF9A
:103BD000FF28EAD06544C81CA5F8028092F808E0E6
:103BE000D77947EA0E2EB8F1000F3FF40FAFFF2848
:103BF000DBD0A5F804E0507A977A40EA0727081D41
:103C0000BEF1000F3FF40BAFFF28CED0EF80907BCA
:103C100092F80FE040EA0E2E481D002F3FF409AF46
:103C2000FF28C2D0A5F808E0107C92F8118040EA85
:103C30000828881DBEF1000F3FF405AFFF28B4D05F
:103C4000A5F80A80907CD77C40EA0727C81DB8F108
:103C5000000F3FF401AFFF28A7D0AF81107D92F88D
:103C600015E040EA0E2E01F10800002F3FF4FEAEF1
:103C7000FF289AD0A5F80EE0907DD77D40EA07276F
:103C800001F10900BEF1000F3FF4F9AEFF288CD01E
:103C90002F82107E92F819E040EA0E2E01F10A0000
:103CA000002F3FF4F6AEFF283FF47FAFA5F812E0F7
:103CB000107F577F40EA072701F10B00BEF1000F8C
:103CC0003FF4F0AEFF283FF470AFAF82907F92F8E0
:103CD0001FE040EA0E2E01F10C00002F3FF4EBAE86
:103CE000FF283FF462AF01F10D00A5F816E0E6E60B
:103CF00055789178D478D80140EA53032B44C3F324
:103D0000460040EAC31351FA83F1C1F3460343EA84
:103D1000C11354FA83F7C7F34604137951799079A4
:103D200044EAC71453FA84F3C3F3460444EAC313C2
:103D300051FA83F1C1F3460343EAC11350FA83F504
:103D4000C5F34600D779117A537A947A40EAC510C0
:103D500057FA80F2C2F3460040EAC21251FA82F1E9
:103D6000C1F3460242EAC11253FA82F3C3F3460298
:103D700042EAC31354FA83F3DBB29B457FF411AFDD
:103D8000D2E6FEF76FFA012803467FF604AF421C25
:103D90003FF4A3AE3068C2699342BFF4F4AD991EFC
:103DA000023A9142F3603EBF8778836A01FB07378E
:103DB00043894FEA531328BF0027B4FBF3F203FBF8
:103DC000124337619BB2A3E62DE9F84F018CB0F89E
:103DD00006A04FF6FF73994208BF51460646FEF70C
:103DE00069FD8146D8B93468D6F81080E56A454542
:103DF00004D02379B3B9B8F1000F36D173696FF0ED
:103E00001A021A7033684FF001021A71F3889A454A
:103E100005D901339FB2002F33D14FF00209484634
:103E2000BDE8F88F04F1300B594601232A4660782B
:103E300012F038FD00286DD1A369226A20711A445E
:103E40009542D8D2E778012F01D8D4E7A3696078EA
:103E50001D44013F2A4601235946FFB212F022FDBC
:103E6000012FF3D1B8F1000FC8D00123424604F16D
:103E70003001607812F0E2FC00284BD1C4F82C80AD
:103E8000BCE7D6F81080B8F1000FC6D0346862895C
:103E90005209B7FBF2F002FB107292B2002A32D143
:103EA000F16808F10108C6F81080002937D0A5781C
:103EB00080B2013D054226D10129AED9E269914285
:103EC000ABD22046FEF7CEF90128A6D9431C21D05B
:103ED0003468E2699042A0D2023A811E9142F060B9
:103EE0003EBFA26A94F8028001FB082862894FEA6B
:103EF000521128BF4FF00008B7FBF1F201FB12721C
:103F0000C6F8108092B204F1300101EB4212F78042
:103F100072616BE74FF001094846BDE8F88F2189CF
:103F2000B9427FF67AAFEEE701294CD92DE9F84F77
:103F3000C36999420DD20378066A022B04460D46E6
:103F400069D0032B41D0012B06D04FF0FF30BDE8E4
:103F5000F88F0120BDE8F88FD0F82C80418905EB5F
:103F60005509B9FBF1F73744B84509D00279002A61
:103F700040F0BA80002F40F012816189D4F82C8083
:103F80004A1E09EA0203234409F10109B9FBF1F1D0
:103F90008F19474593F8306008D02379002B40F003
:103FA000CA80002F40F015816289013A09EA0209AE
:103FB0004C44EB0794F8300046EA002040F11781AA
:103FC0000009BDE8F88F012070474389C76A9A0845
:103FD000B1FBF2F21644BE4206D00379002B5CD14D
:103FE000002E40F0D0806389A9B2013B03EA810131
:103FF00001F13003234421449A78DC78587891F811
:104000003030120442EA046242EA0020184320F0F1
:104010007040BDE8F88F4389C76A5A08B1FBF2F2D5
:104020001644BE4205D0037983B9002E40F0C58006
:104030006389A9B2013B03EA4101631893F8310097
:1040400093F8303043EA0020BDE8F88F00F13009E2
:10405000494601233A46407812F024FC00287FF4B8
:1040600074AFA369226A20711A449742DDD294F892
:104070000380B8F1010F01D8D7E7A36960781F4426
:1040800008F1FF383A46012349465FFA88F812F0F2
:1040900009FCB8F1010FF0D1C7E700F1300949463A
:1040A00001233A46407812F0FDFB00287FF44DAF23
:1040B000A369226A20711A44974291D294F803802E
:1040C000B8F1010F01D88BE7A36960781F4408F1AC
:1040D000FF383A46012349465FFA88F812F0E2FBBE
:1040E000B8F1010FF0D17BE700F1300A51464246AA
:1040F000407812F0D7FB00287FF427AFA369226A2B
:1041000020711A449045BFF435AF94F803B0BBF169
:10411000010F01D82EE7A369607898440BF1FF3BAB
:104120004246012351465FFA8BFB12F0BBFBBBF109
:10413000010FF0D11EE704F1300B5946012342462E
:10414000607812F0AFFB00287FF4FFAEA369226A0B
:1041500020711A4442457FF624AF94F803A0BAF1C7
:10416000010F01D81DE7A369607898440AF1FF3A6E
:104170004246012359465FFA8AFA12F093FBBAF1DC
:10418000010FF0D10DE70123324604F130016078D0
:1041900012F054FB00287FF4D8AEE66223E7012337
:1041A0003A4604F13001607812F048FB00287FF4B1
:1041B000CCAEE762B8466189E2E60123324604F1FB
:1041C0003001607812F03AFB00287FF4BEAEE66260
:1041D0002EE701233A4604F13001607812F02EFBFD
:1041E00000287FF4B2AE6289E762013ADEE6C0F3EE
:1041F0000B00BDE8F88F00BF012902D9C3699942BD
:1042000001D3022070472DE9F04F0378076A022B93
:1042100083B0164604460D460AD0032B00F0D98021
:10422000012B48D002200123237103B0BDE8F08F99
:104230004389D0F82C805A08B1FBF2F21744474565
:1042400005D0037983B9002F40F02C816389ADB28A
:10425000013B03EA4503E118C6F3072281F8306009
:10426000002081F83120DEE700F1300A51460123B9
:104270004246407812F016FB002840F0F880A3690F
:10428000226A20711A449045DDD294F80390B9F166
:10429000010F01D8D7E7A3696078984409F1FF3985
:1042A0004246012351465FFA89F912F0FBFAB9F14F
:1042B000010FF0D1C7E7D0F82C80428901EB5109FA
:1042C000B9FBF2FABA44D04509D00279002A57D195
:1042D000BAF1000F40F0D8806289D4F82C80511ECA
:1042E00015F0010509EA010300F0E780234409F114
:1042F000010993F83000B9FBF2FE00F00F02774499
:1043000042EA06120120474583F83020207100F070
:10431000F98004F1300B594601234246607812F0CF
:10432000C1FA002840F0A380A369226A20711A44D0
:10433000424514D994F803A0BAF1010F01D80EE058
:10434000A369607898440AF1FF3A4246012359462E
:104350005FFA8AFA12F0A6FABAF1010FF0D1002F33
:1043600040F0C4806389013B09EA0309002D00F095
:10437000B480C6F30716A14489F83060002052E7E4
:1043800000F13002009211464078424612F08AFA5B
:1043900000286CD1A369226A20711A44904597D2F3
:1043A00094F803B0BBF1010F92D90197009F00E090
:1043B000A369607898440BF1FF3B424601233946DC
:1043C0005FFA8BFB12F06EFABBF1010FF0D1019F87
:1043D0007EE74389D0F82C809A08B1FBF2F21744AB
:1043E000474504D00379EBB9002F42D16389ADB2C0
:1043F000AD00013B2B40E118C6F3072281F8306085
:1044000081F831206389013B2B402344320C83F82F
:1044100032206389013B1D402544360E85F8336008
:10442000002000E700F1300A51460123424640785F
:1044300012F038FAD8B9A369226A20711A4490455B
:10444000D2D294F80390B9F1010F01D8CCE7A36957
:104450006078984409F1FF394246012351465FFADA
:1044600089F912F01FFAB9F1010FF0D1BCE7012070
:10447000D9E601233A4604F13001607812F0DEF902
:104480000028F4D1E762B1E70123524604F130017C
:10449000607812F0D3F90028E9D1C4F82CA0D046F6
:1044A00062891CE701233A4604F13001607812F07A
:1044B000C5F90028DBD1E762C8E6234409F1010908
:1044C000B9FBF2F2174447454FF0010283F8306020
:1044D00022717FF41EAF01EA0909A144C6F3032645
:1044E00099F8303023F00F031E4345E75946012366
:1044F0003A46607812F0A2F90028B8D16389E762E1
:10450000013B31E701EA090933E700BFC36902391A
:10451000023B99423DBF8378806A01FB0300002083
:10452000704700BF70B40D1D041DA14238BFA842E2
:1045300083B0C0F00D8141EA0004A40740F0088177
:104540000C6804604C6844600C7A04724C7A4472C3
:10455000897A8172052B40F2C2801488D90341EA1E
:10456000530314FA83F332F8024F9BB2002CF5D1B7
:104570009A49A1FB0342D20802EB8204A3EB440454
:10458000303492B28DF80740002A00F0F880A1FB89
:104590000245ED08924C05EB8505A2EB4502A4FB14
:1045A00003543032C4F34F148DF80620002C00F071
:1045B000E480A1FB0425ED088A4A05EB8505A4EB00
:1045C0004504A2FB03523034C2F38F128DF805402C
:1045D000002A00F0D080A1FB0241C908824C01EB07
:1045E0008101A2EB4102A4FB03133032C3F34F332A
:1045F0008DF80420002B00F0BC8030338DF80330A0
:10460000022102AB5C1803787E22202B04F8082CD0
:1046100008BF002206D04378202B00F0DD8002295D
:104620006BD10A46531C024414F8085C15705D1CDB
:1046300014F8074CC454072D01F102024CDC082A7F
:1046400003F102046FD002AE3244082C12F8082C99
:10465000425501F103063FD0082E03F10303044441
:1046600000F0978002AA16440A1D16F8081C217053
:10467000082B31D0082A03F1010162D002AD1544A4
:10468000082915F8085CC55402F1010424D0082C4F
:1046900003F10203014479D002AD2C44023214F834
:1046A000084C0C70082B17D0082A03F1010141D0E7
:1046B00002AC1444072914F8084CC45402F1010256
:1046C0000AD1082A1CBF02ABD21800F1070014BFA0
:1046D00012F8083C2023037003B070BC70470278C6
:1046E00030337E21202A8DF807308DF8061048D00F
:1046F0004378202B4FF006016AD08378202B57D0C7
:1047000003294ED0C378202B56D004294DD00379ED
:10471000202B59D006293FD14379202B50D00A466F
:104720000DF10E047EE72021082C4155D4D003332F
:1047300004449CE720220729C254CDD107301346F8
:10474000C9E720240829C454C6D002330144A8E78D
:104750000C7804704C7844708C788470CC78C47079
:104760000C7904714C7944718C798471CC79C47161
:10477000EAE6032145E7042143E7052141E7062155
:104780003FE7062100220DF10E044BE722462024CC
:1047900087E7324620216AE705210A460DF10D041C
:1047A00040E70A460DF10B043CE70A4603AC39E743
:1047B00002AB02225C1835E702AB03225C1831E73A
:1047C00005220DF10E042DE702AB04225C1829E747
:1047D00001220DF10E0425E7012223E7CDCCCCCC3C
:1047E0001F85EB51D34D62105917B7D12DE9F8430E
:1047F00004682378303B092B02D865783A2D17D00E
:10480000774E34680C6084B123781546BBB160786C
:1048100012F00AF8C10712D4E5B100F0040303F066
:10482000FF00DBB10A20BDE8F8830C20BDE8F88367
:1048300002340460002BE3D00B20BDE8F883002095
:104840002070607011F0E0FFC207074608D5032012
:10485000BDE8F8832846BDE8F8830120BDE8F88369
:1048600004F10A020221607812F054F810B10D2010
:10487000BDE8F8836389B3F5806FF8D80DB17B0785
:10488000D0D400212046FDF733F901287AD0002545
:104890000328E2D00028EAD194F83C1094F83B2099
:1048A000638942EA01218B42E1D194F8463094F8C1
:1048B000470094F8449094F83E7094F83F8094F840
:1048C00040C094F842E094F8412084F803C053EAD1
:1048D000002094F8433008BF606DA06153EA0923BB
:1048E00008BF236D47EA082800FB0CF0C8EB030360
:1048F00042EA0E221B1A94F83DE02281490940F653
:10490000F67CB2FBF1F29B1AB3FBFEF3023305EB2C
:1049100008076345276284F802E0E3613ED94FF659
:10492000F6718B4245D994F8611094F860301744C1
:1049300043EA0122384400232A444FF0FF31E56D59
:10494000A06221612371637162616562012304F1D8
:104950003001607811F072FF48B994F82F1294F882
:104960002E324AF6552243EA0123934223D00323F1
:10497000B2882370531C9BB20020B380E380E062B6
:10498000BDE8F88394F8F231002B3FF470AFD4F80F
:10499000F65120462946FDF7ABF879E70123384464
:1049A00002444FF0FF350021A2626062256121714F
:1049B000DEE70223F3E70B4B226B9A42D7D103F1D8
:1049C000FF5303F50053D4F8142220339A42CED17A
:1049D000D4F81832D4F81C222361E2600323C7E71D
:1049E000644B00205252614108B10B207047054BC7
:1049F0001A6802B1107009B100220A701960002013
:104A0000704700BF644B00202DE9F04F0023036086
:104A10000B78303B092B8FB005460C46164617D94C
:104A2000DFF8CC83D8F8007005974FB33B7806F0D9
:104A30001E09BBB1787811F0F7FEC10712D4B9F1A5
:104A4000000F00F0B780420740F1B4800A2006E072
:104A50004A783A2AE4D10B20002B00F0C3810FB032
:104A6000BDE8F08F00203870787011F0CDFE10F0A6
:104A7000010F824600F0ED8003200FB0BDE8F08FFB
:104A80000C20ECE77B89B3F5806F00F2EB80B9F185
:104A9000000F02D01AF0040FD8D100213846FDF7DC
:104AA00027F8012800F06D814FF00009032800F07D
:104AB0001781002840F0D68097F83C1097F83B30DB
:104AC0007A8943EA01239A42019340F0CB8097F818
:104AD000462097F8470097F8401097F8433097F82A
:104AE00044A097F83FC0F97052EA002008BF786DE3
:104AF00097F83E20B86100FB01F153EA0A2008BF95
:104B0000386D97F842B097F841E0019B42EA0C2CCF
:104B10000CEB0902CCEB000C4EEA0B2EC1EB0C0C9B
:104B200097F83DB0A7F808E05B0940F6F670BEFBC9
:104B3000F3FECEEB0C03B3FBFBF3023383423A628A
:104B400087F802B0FB6140F228814FF6F67083428D
:104B500040F2468197F8610097F8603096447144BE
:104B600043EA00224A44FB6DB9624FF0FF30002156
:104B70007B623861397179717A61012307F1300103
:104B8000787811F05BFE50B997F82F2297F82E3203
:104B900043EA02234AF65522934200F00A81032396
:104BA000B8F804203B70531C9BB20022A8F80430D4
:104BB000FB80FA628C4B0C9302AA214605A80B924B
:104BC000FEF738FD16F01C0F06F01F072BD000284B
:104BD00033D004287FF443AF05A8FEF719F9002865
:104BE0007FF43DAF0A9C47F00807380743D4059986
:104BF0000A9ACB6AEB61AF712A62A27E667D207D44
:104C0000E37E40EA062042EA032343EA00432B61A5
:104C1000FF23E269EB71CB88AB800020EA6029605A
:104C2000A860A8611BE700287FF419AF0A9C14B1A3
:104C3000E37AD90618D5042011E7730701D50820B7
:104C40000DE70A9C1CB1E37A13F0110326D007206C
:104C500005E707F10A020221787811F05BFE0028CF
:104C60003FF410AF0D20FAE6B20701D5DB07EED412
:104C700005992246BDE70023E372FCF7A3FD0599E1
:104C8000A073020CC0F307260123000EE673227402
:104C900060740B7147F020070A9AAAE73607A4D57B
:104CA000667DE07E217DA27EDDF814E0237742EA76
:104CB000002241EA0621012052EA01466377A377E8
:104CC000E37763752375E376A3768EF804008CD0C2
:104CD000864203D0DEF81C309E4203D30220BEE69B
:104CE0000120BCE631467046DEF82C90FDF73EF917
:104CF00000287FF4B4AEDDF81480D8F82CA0013E73
:104D0000CA45C8F80C603FF470AF98F8043083B916
:104D1000B9F1000F3FF469AF01234A4608F13001B1
:104D200098F8010011F08AFD0028D9D1C8F82C901C
:104D30005BE708F1300B59460123524698F8010011
:104D400011F0B0FD0028CBD1D8F82020D8F81830C9
:104D500088F804001A449245DAD298F80360012ECC
:104D600002D8D5E7D8F8183098F801009A44013EE7
:104D7000524601235946F6B211F094FD012EF1D1AD
:104D8000C6E797F8F231002B3FF46CAFD7F8F691F5
:104D900038464946FCF7ACFE88E6012311448E44B0
:104DA0004FF0FF300022C7F828E0796238613A718D
:104DB000F6E60E4B3A6B9A427FF4F1AE03F1FF53E5
:104DC00003F50053D7F8142220339A427FF4E7AE5C
:104DD000D7F81832D7F81C223B61FA600323DFE6CC
:104DE0000223DBE702341BE66C4B00205252614188
:104DF000644B00202DE9F04F9846036805460020DB
:104E000085B0C8F8000013B10E46197819B9092009
:104E100005B0BDE8F08FA888D9888842F7D15878C6
:104E2000009211F001FD10F00100009A01D0032062
:104E3000EEE7AB79190605D4D90707D4072005B0EA
:104E4000BDE8F08F022005B0BDE8F08FA968EF68DB
:104E50007F1A974228BF1746002F00F0B28005F155
:104E60002403009001932A685489B1FBF4F304FBF6
:104E70001313002B40F0C28095F807E09378734538
:104E800040F206816869D369A0F1020A023B9A45A3
:104E900080F01D819178936A01FB0A33002B00F0AA
:104EA00016815489B7FBF4F403EB0E0A002C00F0D2
:104EB0008A800EEB0403994238BFCEEB01045FFAFF
:104EC00084F950784B465246314611F0B7FCAB7925
:104ED000002840F003815B065DD5AB69CAEB030A8D
:104EE000544558D92B4653F824CBBCF80A1001FB83
:104EF0000AFA06EB0A02029201F1FF3E00294CD0A9
:104F00000AF1040CB44405F1280A524538BF634540
:104F10002CBF4FF0010C4FF0000C092994BF4FF04B
:104F2000000C0CF0010CBCF1000F00F0EE8042EA26
:104F3000030C1CF0030F40F0E880A1F1040C4FEAD1
:104F40009C0C0CF10102BEF1020F03924FEA820B9E
:104F500014DD029A029305F1200A94465AF8043FA0
:104F60004CF8043B039B01309842F7D3029B5A4410
:104F7000594502925B44CBEB0E0E0CD0029A197885
:104F80001170BEF1000F06D059785170BEF1010FBB
:104F900001D09B789370D5F800C0EB79A96899444B
:104FA00085F80790BCF80A3004FB03F4D8F8003009
:104FB000214423443F1BA9602644C8F800307FF4F5
:104FC00052AF002024E7AB79580600F18C80AB6922
:104FD0009A4508D0507801990123524611F02EFCD1
:104FE00000287AD12A68EB79A968C5F818A001339E
:104FF000EB715489B1FBF4F304FB1313E41ABC42C4
:1050000003F1200328BF3C46EA18131D04F1FF3EBC
:10501000002CCBD0191D06F10409084649468B42E5
:1050200038BF864243EA060C2CBF012100211CF048
:10503000030F01F0010118BF0021002938D0092C0D
:1050400036D9211F89080131BEF1020F4FEA810CC8
:105050002CD9B14600208A46013052F8041F49F885
:10506000041B8245F8D864456344CCEB0E0E06EB76
:105070000C020BD019781170BEF1000F06D05978D0
:105080005170BEF1010F01D09B789370A9688DE734
:10509000B9B9286901281AD9421C1ED09DF80030E0
:1050A0002A686861EB714FF0000EECE63246E1E7EA
:1050B000721E181913F8011B02F8011F8342F9D15F
:1050C000E4E76969012902D9D369994219D3AB7917
:1050D00063F07F03AB7102209AE6AB7963F07F0344
:1050E000AB71012094E650780199AA69012311F06F
:1050F000D9FBAB790028F1D123F040032A68AB71CA
:1051000065E71046FDF7AEF8C4E7013A194413F815
:10511000010B02F8010F8B42F9D13CE72DE9F04F6A
:105120001F4603680546002087B0386013B19346D8
:105130001A781AB9092007B0BDE8F08F0E46DA8850
:10514000A9889142F6D1587811F06EFBC10701D5BC
:105150000320F0E7AB791A0605D49A0707D4072095
:1051600007B0BDE8F08F022007B0BDE8F08FEA6815
:105170001BEB020F08D3A96843F02003914288BFBC
:10518000E960AB710020D6E7BBF1000FF3D005F169
:1051900024030293A96805F1280303932A6854891C
:1051A000B1FBF4F304FB1313002B40F0D980E87932
:1051B0009378984210D3002940F04981286900284B
:1051C00000F05981012800F06F81441C00F0398102
:1051D00000232A686861EB71A879410600F11B8100
:1051E0006B69D169A3F102090239894580F05781C1
:1051F0009178936A01FB0933002B00F05081E87924
:105200005489BBFBF4F403EB0009002C00F09780F9
:105210000319994238BF0C1A5FFA84F85078434654
:105220004A46314611F03EFB002840F00A81AB6946
:10523000D5F800C0C9EB03094C4575D9BCF80A3054
:10524000019303FB09F906EB09030093019A019B03
:1052500003F1FF3E05F12403002A61D009F1040C9B
:105260000399009AB4448A4238BF63459946019B2A
:105270002CBF4FF0010C4FF0000C092B94BF4FF0E6
:10528000000C0CF0010CBCF1000F00F0E88049EAC2
:10529000020C1CF0030F4B4640F0E180019AA2F192
:1052A000040C4FEA9C0C0CF10101BEF1020F0491B9
:1052B0004FEA810A20DD009ACDF81480A2F104099A
:1052C00019469C46019A009BA04659F8044F4CF899
:1052D000044B049C01308442F7D800930B4653449E
:1052E0009946009B01925344524544460093DDF891
:1052F0001480CAEB0E0E11D0009B1A7889F800209A
:10530000BEF1000F0AD0009ABEF1010F527889F861
:10531000012003D0009B9B7889F80230D5F800C0AB
:10532000AB7923F04003AB71EB79A968984485F819
:105330000780BCF80A3004FB03F432195AE0AB6969
:10534000A968994503D0EB689942C0F09C80013070
:10535000E8715489C5F81890B1FBF4F304FB1313FA
:10536000E41A5C4528BF5C462B442433601E324659
:10537000002C3BD01A1D06F1040C114662469342E4
:1053800038BF8E4246EA030E2CBF012200221EF0D7
:10539000030F02F0010218BF0022002A48D0092C96
:1053A00046D9221F9208013202284FEA820E30D9D4
:1053B000A6F104089C4600219146013158F8042FBB
:1053C0004CF8042B8945F8D874457344CEEB0000A3
:1053D00006EB0E0209D011781970C0B151785970DE
:1053E000012814D092789A703219A968AB7943F0E9
:1053F0004003AB713B6821442344BBEB040BA96021
:1054000016463B607FF4CAAEEA68AB79B3E6321960
:10541000EBE73246DFE750780299AA69012311F0E1
:1054200041FA70B9A8792A6800F0BF00A871D7E6E0
:10543000013B321916F8011B03F8011F9642F9D1FE
:10544000D3E7AB7963F07F03AB71012073E61046BD
:105450006969FDF76BF800287FF4B4AED4E7009BD0
:10546000019A05F123011A4413F8010B01F8010F09
:105470009342F9D152E71046FDF758F82861002809
:105480007FF4A0AEC0E75078029901234A4611F09C
:10549000D5F90028D5D1E8792A68A96857E760F0DE
:1054A0007F00A871022046E6AB7963F07F03AB7101
:1054B000022040E62DE9F84303680BB11A7812B9CF
:1054C0000920BDE8F8838188DA889142F8D1044642
:1054D000587811F0A9F9C20702D50320BDE8F88376
:1054E000A27902F0200303F0FF00002B6BD05306DB
:1054F0000DD52368A269587804F12401012311F025
:10550000D1F900285CD1A37923F04003A371256869
:10551000D4F81C80EE6AB04504D02B7983BBB8F177
:10552000000F52D1256AEB7A43F02003EB72E36857
:105530002B77A3891B0A6B77E389AB77E37BEB7748
:105540002369AB76238A1B0AEB76638A2B75638A01
:105550001B0A6B75FCF736F9C0F30721020C030E2A
:10556000E975A8752A766B76A379226823F0200363
:105570000121A37111712068BDE8F843FCF7E2BA7C
:1055800005F13009494601233246687811F08AF95D
:10559000B0B9AB692A6A28711A449642BFD2EF7833
:1055A000012F01D8BBE7AB6968781E44013F324642
:1055B00001234946FFB211F075F9012FF3D1AEE78F
:1055C0000120BDE8F883BDE8F8830123424605F1D8
:1055D0003001687811F032F90028F1D1C5F82C803B
:1055E000A0E700BF2DE9F84303680BB11A7812B9A0
:1055F0000920BDE8F8838188DA889142F8D1044611
:10560000587811F011F9C00702D50320BDE8F883DE
:10561000A3799A0648D559060DD52368A26958780A
:1056200004F12401012311F03DF9002860D1A37990
:1056300023F04003A3712568D4F81C80EE6AB045BE
:1056400005D02B79002B33D1B8F1000F55D1256A45
:10565000EB7A43F02003EB72E3682B77A3891B0AF4
:105660006B77E389AB77E37BEB772369AB76238AB0
:105670001B0AEB76638A2B75638A1B0A6B75FCF732
:10568000A1F8C0F30721020C030EE975A8752A766C
:105690006B76A379226823F020030121A371117195
:1056A0002068FCF74FFA30BB00202060BDE8F8838B
:1056B00005F13009494601233246687811F0F2F8C5
:1056C000B0B9AB692A6A28711A449642BCD2EF7805
:1056D000012F01D8B8E7AB6968781E44013F324614
:1056E00001234946FFB211F0DDF8012FF3D1ABE7FA
:1056F0000120BDE8F883BDE8F8830123424605F1A7
:105700003001687811F09AF80028F1D1C5F82C80A2
:105710009DE700BFF8B503680BB11A780AB90920F4
:10572000F8BD0D46DA88818891420446F7D1587851
:1057300011F07AF8C20701D50320F8BDA3791A0643
:1057400069D4E268AA4203D213F0020F08BF1546DB
:105750000022FF21A368E171A260002D5DD02068C6
:105760008278468906FB02F643B1013B6A1EB3FB11
:10577000F6F1B2FBF6F28A4280F0858021690029B9
:1057800000F089806161002936D1A66842890D4602
:10579000B6FBF2F302FB1363002B00F08680A269D4
:1057A000954200F08280A379590604F124060AD5B7
:1057B00001234078314611F075F8A379B8B923F088
:1057C00040032068A3713146407801232A4611F036
:1057D00035F858B9A668E368A5619E426DD9A379EA
:1057E000E66043F02003A3710020F8BDA37963F0C5
:1057F0007F03A3710120F8BDB5425CD9A3799F074F
:10580000A5EB06050BD4012902D9C2698A4236D814
:1058100063F07F03A3710220F8BD2846F8BDFCF7B2
:1058200085FE0146002842D0481CDFD0012930D92E
:105830002068C36999422CD2A36861613344AE42A7
:10584000A360DBD34789B5FBF7F7FFB2E771428965
:10585000B5FBF2FEEE1802FB1E55A660002D97D098
:10586000C2698B1E023A934213D28278816A03FB8B
:10587000021171B17B1CE3717D18428988E7FCF746
:10588000F1FC0146D0E772421340A360ED1A616952
:1058900079E7A379BCE7FCF749FE01280146F8D077
:1058A000431CA3D0206821616CE7E36895E7354687
:1058B000A3682068C6E7A368C4E70020F8BD00BF5E
:1058C0002DE9F04F0B78303B092B85B00D4604468F
:1058D00032D9864F3E682660002E42D03378002BA6
:1058E00034D0707810F0A0FFC1072FD401AA804BEC
:1058F000A2612946E3612046FDF79CFEB0B96369C9
:105900006BB1DA7AD20613D55D7D197DD87E9A7E89
:1059100041EA052142EA002343EA0143A3602368E8
:10592000DB88A38020460021FCF7C4FF04280AD1AD
:10593000052005B0BDE8F08F4A783A2AC9D10B207E
:10594000002B00F0BC8005B0BDE8F08F0020307067
:10595000707010F059FFC00705D5032005B0BDE8F1
:10596000F08F0C20EFE706F10A020221707810F0A8
:10597000D1FF804608B10D20E5E77389B3F5806F4C
:10598000F9D801463046FCF7B3F801287BD003284C
:1059900000F085800028EED196F83CC096F83B20B8
:1059A000738942EA0C2C6345E5D196F8463096F8A7
:1059B000472096F844A096F83E1096F83F9096F847
:1059C00040B096F842E096F8410086F803B053EAFA
:1059D000022296F8433008BF726DB26153EA0A237F
:1059E00008BF336D41EA0929C9EB030302FB0BF23F
:1059F00040EA0E209B1A09EB080196F83DE0308141
:105A00004FEA5C1940F6F67CB0FBF9F01B1AB3FBC9
:105A1000FEF302336345316286F802E0F36140D958
:105A20004FF6F67E734548D996F861C096F860E067
:105A30000B1813444EEA0C2101EB08024FF0FF3023
:105A4000F16DB36200237162306133717371726101
:105A5000012306F13001707810F0F0FE48B996F895
:105A60002F1296F82E324AF6552243EA012393422A
:105A700027D00323BA883370531C9BB20022BB800B
:105A8000F380F26232E796F8F231002B3FF473AF05
:105A9000D6F8F68130464146FCF72AF877E7012030
:105AA00051E701230A4410444FF0FF3E0021B06249
:105AB0007262C6F810E03171DCE70223F2E70235CA
:105AC00007E70C4B326B9A42D3D103F1FF5303F536
:105AD0000053D6F8142220339A42CAD1D6F818328D
:105AE000D6F81C223361F2600323C3E7644B002025
:105AF0006C4B002052526141036853B11A7842B195
:105B000070B5DA888488944284B004D0092004B047
