:0400000000002728AD
:10000800803120007F08E4002100911C172820007F
:10001800911C172891100130E3006308AC070130E8
:10002800E3006308AB072000911E232891122300E8
:1000380019082000E3006308FD007D083020200037
:100048006408FF000900282820308400003085005B
:10005800393014232000A82AFC00E0297C0820005D
:10006800DE005E08A400A301A201A601A408031DE6
:1000780042280230DE005E08AA0008000130DE00D7
:100088005E08AA0008007C08DE005E08A4002408B8
:10009800553A031D54280330DE005E08AA00080004
:1000A8000130DE005E08AA0008007C08DE005E0859
:1000B800A700A50102302502031808002508DE0064
:1000C8000130DE35FF3E031D65285E35053E833170
:1000D8000A0080312706031DF128A2012508DE0049
:1000E8005E08A6002608DE000130DE35FF3E031D4F
:1000F80079285E35023E053E83310A008031DF00F3
:100108005F08A8002808023A031DAD280530DE0064
:100118005E08AA002608DE000130DE35FF3E031D1A
:1001280091285E35013E053E83310A008031DF00AB
:100138005F08A3002708DE000A30DF005F08F00030
:100148002608DC222D3E8600870120005E088100FB
:10015800F1282808013A031DEC280430DE005E0867
:10016800AA002608DE000130DE35FF3E031DB82850
:100178005E35013E053E83310A008031DF005F08AD
:10018800A3002708DE000A30DF005F08F000260819
:10019800DC222D3E8600870120005E0881000130A8
:1001A8002207DE002D305E07DF000A30E00060081D
:1001B800F0002608DC2220005F07E10061088600C5
:1001C80087010108E2006208A40024080D23F12831
:1001D80001302000DE005E08AA0001302000DE00A9
:1001E8005E08A5075E287C08DE005E08A4002408D7
:1001F800DE0001302207DF002D305F07E0000A3003
:10020800E1006108F0002608DC2220006007E20017
:100218006208860087015E08810022082306031D04
:100228001A290730DE005E08AA0008000130DE0047
:100238005E08A2070800230803195B292308FF3E6C
:10024800DE00FF3003180030DF002208E000E10183
:100258005F086102031D32295E086002031C5B29E6
:100268000630DE005E08AA002308013EDE005E08B4
:10027800F4000A30DF005F08F0002608DC222D3E7B
:1002880030222000E0006008A9002908DE000A30BA
:10029800DF005F08F0002608DC22093E2D3E8600BC
:1002A800870120005E08810024080D230800013022
:1002B8002000DE005E08A20701302207DE002D3094
:1002C8005E07DF000A30E0006008F0002608DC2244
:1002D80020005F07E1006108860087010108E2004D
:1002E8006208A40024080D2308007C082000DE0012
:1002F8005E08A4002308013EDE005E08F4000A3010
:10030800DF005F08F0002608DC222D3E30222000A6
:10031800E0006008A90029082406031DC82924084C
:10032800DE000A30DF005F08F0002608DC22093E04
:100338002D3E8600870120005E0881000130DE0026
:100348005E08AA000A30DE005E08F0002608DC22FB
:10035800013E2D3E2000DF005F08F4000830F50064
:100368000030F6002608E0000130E035FF3E031DAE
:10037800B9296035033E053E83310A0081315D228B
:1003880020002608F921080001302000DE005E0860
:10039800AA0008007C08DE005E08A40029082406DC
:1003A800031DDB290130DE005E08AA0008000130C9
:1003B800DE005E08AA00080020002A08013A031996
:1003C8003228033A03194728013A03195928073AEA
:1003D80003191F29013A0319F728033A0319CE29EB
:1003E800013A03197929F8290800FB007B08200045
:1003F800D9000130D935FF3E031DFE295935053E88
:1004080083310A008231013A031D08007B08D900B4
:100418000130D935FF3E031D0D2A5935033E053EEF
:1004280083310A008231DA005A08F4007B08DB00C5
:100438000130DB35FF3E031D1D2A5B35013E053EBD
:1004480083310A008231DC00DD015C08F5005D08BB
:10045800F60051305D220800F900FA01FB01013075
:10046800F4027408FF3A0319482A790886008701BC
:100478000108F500F6017508FA077608FB3D01301A
:10048800F5007508F907332A7B08F6007A08F500A5
:100498007608F500F601FF307A05F70000307B0595
:1004A800F80075087707FA007608783DFB007A09A6
:1004B8000800FA007408F7007708F9007A08F700CE
:1004C8007708F8000130F5020030F63BFF30760679
:1004D800031D702AFF307506031908007908860085
:1004E80087010108F70078088600870177088100EE
:1004F8000130F7007708F9070130F7007708F807A7
:10050800662A8C3022009D00783021009900033043
:100518009500073022009100043023008C00013040
:1005280021009D00D0309E008C160C128C150C15E5
:100538008C100C107C3020009C009A019110210036
:1005480091140B178B17080028302100A2002330C4
:10055800A3000130A2020030A33BFF302306031D95
:10056800B72AFF302206031DAD2A8522CA221A2384
:1005780020002C08093A031DC42AED222000AC01F2
:100588002B08633A031DBC2AAB01BC2A23009C013B
:1005980019309B001E139E161E129E111E111F124B
:1005A8009F111F101D131D161D119D109D1708006A
:1005B800F300F201731CE42A7008F1007108F207D5
:1005C8000310F00D0310F30CF308031DDE2A720864
:1005D8000800F922210021082000A101A10721001B
:1005E80020082000A001A007080021009D149D18E4
:1005F800FB2A1C08A101A1071B08A001A0070800ED
:1006080000340134083402344134023408340134EB
:100618004934F00023009E1C0E2B70089A00080035
:0E062800640080010131890B152B003408009D
:00000001FF
