:020000040000FA
:1000000008050010AD010000B1010000B3010000BF
:10001000B5010000B7010000B901000000000000B8
:10002000000000000000000000000000BB01000014
:10003000BD01000000000000BF010000C101000080
:10004000C3010000C3010000C3010000C3010000A0
:10005000C3010000C3010000C3010000C301000090
:10006000C3010000C3010000C3010000C301000080
:10007000C3010000C3010000C3010000C301000070
:10008000C11B0000411C0000C3010000C3010000AF
:10009000C3010000091D0000C3010000C3010000EE
:1000A000C3010000C3010000C3010000C301000040
:1000B000351100001D11000005110000FB020000B9
:1000C00000F002F800F046F80CA030C808382418F8
:1000D0002D18671EA246AB4654465D46AC4201D180
:1000E00000F038F87E460F3EB6460FCC012633426C
:1000F00000D0FB1A3343A246AB461847A01F0000AE
:10010000C01F0000103A02D378C878C1FAD852074D
:1001100001D330C830C101D504680C6070470000BD
:100120000023002400250026103A01D378C1FBD813
:10013000520700D330C100D50B60704710B5642959
:1001400002D100F097F810BD002010BD1FB51FBDF3
:1001500010B510BD00F088FA1146FFF7F7FF01F067
:1001600041FF00F0A0FA03B4FFF7F2FF03BC00F078
:10017000A3FA000070B505460C46164602E00FCC07
:100180000FC5103E102EFAD2082E02D303CC03C5A1
:10019000083E042E07D301CC01C5361F03E02178A9
:1001A0002970641C6D1C761EF9D270BD084800478A
:1001B000FEE7FEE7FEE7FEE7FEE7FEE7FEE7FEE717
:1001C000FEE7FEE703480449024A044B704700007B
:1001D000C10000000803001008050010080300100B
:1001E0000FB41CB5074B06AA7B44694600900598DE
:1001F00000F013FA0020694600F075F81CBC08BC3A
:1002000004B01847FB000000F8B50E460446002075
:1002100020622046E1688847002829D0252802D09E
:100220006268A16820E0E168204600278847050051
:100230001ED028464138192802D80127FF02203550
:100240003246204627602946FFF778FF002808D06D
:10025000012804D0F61DF608F6000836D9E7361D49
:10026000D7E762682846A1689047206A401CCFE71C
:10027000206AF8BDF7B5002575291068009914A605
:1002800011D0C046C046002802DA404211A608E05C
:10029000009909688A0701D50FA602E0490704D52D
:1002A0000EA6012501E0C046C046009F0024243769
:1002B00004E000F0C5F930313955641C0028F8D14C
:1002C0002B4632462146009800F04AF9FEBD000058
:1002D000000000002D0000002B00000020000000A6
:1002E0007047704770470A681070521C0A60704768
:1002F000004870470001001070477047FFFFFFFF84
:1003000030B5441C03E00178401C00290DD0810762
:10031000F9D10B4BDD0104C8D11A91432940FAD021
:10032000001B0A0603D0C01E30BD001B30BD0A04EE
:1003300001D0801E30BD0902FCD0401E30BD00003F
:1003400001010101F8B5042A2CD3830712D00B78E0
:10035000491C0370401C521E83070BD00B78491CAC
:100360000370401C521E830704D00B78491C037095
:10037000401C521E8B079B0F05D0C91ADF0020239B
:10038000DE1B08C90AE0FFF7F5FEF8BD1D4608C9E7
:10039000FD401C46B4402C4310C0121F042AF5D265
:1003A000F308C91A521EF0D40B78491C0370401C84
:1003B000521EEAD40B78491C0370401C012AE4D475
:1003C00009780170F8BD01E004C0091F0429FBD2BF
:1003D0008B0701D50280801CC90700D002707047CE
:1003E00000290BD0C30702D00270401C491E02290D
:1003F00004D3830702D50280801C891EE3E7002214
:10040000EEE70022DFE7002203098B422CD3030A28
:100410008B4211D300239C464EE003460B433CD451
:10042000002243088B4231D303098B421CD3030AB9
:100430008B4201D394463FE0C3098B4201D3CB01E9
:10044000C01A524183098B4201D38B01C01A524119
:1004500043098B4201D34B01C01A524103098B421D
:1004600001D30B01C01A5241C3088B4201D3CB0008
:10047000C01A524183088B4201D38B00C01A5241EB
:1004800043088B4201D34B00C01A5241411A00D29B
:1004900001465241104670475DE0CA0F00D0494204
:1004A000031000D3404253409C46002203098B4274
:1004B0002DD3030A8B4212D38901FC2212BA030AFC
:1004C0008B420CD3890192118B4208D3890192117E
:1004D0008B4204D389013AD0921100E08909C30903
:1004E0008B4201D3CB01C01A524183098B4201D305
:1004F0008B01C01A524143098B4201D34B01C01AF0
:10050000524103098B4201D30B01C01A5241C30867
:100510008B4201D3CB00C01A524183088B4201D3D6
:100520008B00C01A5241D9D243088B4201D34B00F1
:10053000C01A5241411A00D2014652411046634648
:100540005B1001D34042002B00D5494270476346FF
:100550005B1000D3404201B50020C046C04602BD3A
:10056000FFB504460D4681B024300090216888060E
:1005700004D51022E0699143216000E00120A842E7
:1005800001DD471B00E000270498A1697A191018C3
:10059000081AA0612078C00602D42046C046C04692
:1005A000002608E003986268A168805D9047206A91
:1005B000401C761C206204988642F3DB2078C0063B
:1005C0000AD52046C046C04606E06268A1683020D1
:1005D0009047206A401C206238467F1E0028F4DCC9
:1005E00007E000986268A168405D9047206A401C5F
:1005F000206228466D1E0028F3DC2046C046C04617
:100600002078000602D5022005B0F0BD0120FBE7EE
:1006100001694A1C02610878704700B58FB00291E9
:1006200000210591054901937944039111460490F5
:100630006846FFF7E9FD0FB000BD0000E5FFFFFFD2
:1006400001468008081A02091018020A1018020C44
:100650001018C008820012185200891A01E0401CCC
:100660000A390A29FBD270477546FFF741FEAE46AC
:10067000050069465346C008C000854618B020B53D
:10068000FFF7A0FD60BCB64600260027C0C5C0C568
:10069000C0C5C0C5C0C5C0C5C0C5C0C5403D49086E
:1006A00049008D46704710B50446C046C0462046F6
:1006B000FFF759FD10BD000001491820ABBEFEE751
:1006C00026000200F0B50122D2030C4D002311E0F8
:1006D000C45C24026C40002507E0561DA7B27C00D4
:1006E0006640174200D034466D1CAEB2072EF4D9D6
:1006F0005B1C25468B42EBD1A8B2F0BDFFFF00008A
:10070000014908707047C04600000010F8B50C465B
:100710003E21665C25463E35002E11D03C210091DD
:10072000675C0622114679436118FFF70BFE781CBF
:100730000A21FFF768FE00982154701E2870F8BD4A
:100740000021418001708180F8BD000010B52D4965
:100750004C780B78CA788878002C06D0002B0BD008
:10076000002A0ED0002823D11FE0002B0CD0002A35
:100770000FD0002819D113E0002A0FD000280AD189
:100780000EE0002807D113E0002A0CD000280FD17A
:1007900001E0002804D1C879401C08E0002804D0FA
:1007A0000120887204E0002802D0C879401EC87178
:1007B000887A00280DD00020887201200871062058
:1007C0000856012803DBC879401CC87102E00028E4
:1007D00015DBC8798871C0B2042808D0FC280DD177
:1007E0000020C871487B401C4873012004E00020B1
:1007F000C8714A7B521E4A7300F0E4FE10BDC879EE
:10080000401EE2E780010010654902220A60074AA3
:100810008A6048610320C043FF220A500420086117
:10082000012008600A680242FCD1704780BB0000CA
:10083000F8B517460D46009001F08EF9A026304617
:1008400001F0E0F801208407606818283BD1009887
:10085000000A01F0D7F86068282834D10098C0B2A7
:1008600001F0D0F8606828282DD101F075F9701CCE
:10087000C0B201F0C7F86068402824D1022F18D315
:100880000820A0612268042101E0A06122680A43D7
:10089000226001E00C22A26122680242FCD0A26820
:1008A0002A70FAB27F1E6D1C022AF3D0012AECD105
:1008B00009E0012F07D10C20A0612068082108421F
:1008C000FBD0A068287001F057F9F8BDF8B51546BF
:1008D0000E46074601F040F9A024204601F092F8A8
:1008E0000097380A01218F0779681829FCD101F097
:1008F00089F878682828FCD10098C0B201F082F805
:1009000078682828FCD107E0307801F07BF8786817
:100910002828FCD1761C6D1E2806F5D101F02CF993
:1009200000200B49884210D860223A600822BA6140
:100930003B681342FCD0BC602823BB613B68134278
:10094000FCD0401C7A68182AECD101F015F9F8BDEA
:100950009FBB0D0070B504463E20205C25463E3509
:100960000A2811D03D26A05D06234343E152E0183A
:100970008280090C4180A05D401C0A21FFF743FDE5
:10098000A1552878401C287070BD0000002801D0B7
:10099000034800E0014801210160704704C00040A5
:1009A0000400014080B52B281AD02D2822D03C28E5
:1009B00026D03E282ED04D2835D052283DD0532861
:1009C00048D05B2850D05D2857D05E2860D1314890
:1009D000807801285CD1002001F08AF834A055E02D
:1009E0002C488178012953D100210171012000F0A8
:1009F000E9FD80BD27498878012849D100200EE013
:100A000024488178012943D101210171002000F09F
:100A1000D9FD80BD1F498878012839D1012008718E
:100A200000F0D0FD80BD1B488178012930D1002124
:100A30000171012000F046FD80BD16488178012932
:100A400026D1017A0022521A4A41027200291CD092
:100A500011A01BE00F488178012919D100210171F3
:100A6000022000F02FFD80BD0A48817800290FD1B7
:100A7000012181700021017180BD06488178012922
:100A800006D100218170017180BD06A001F0A2F99C
:100A900080BDC046600000100A0D524453204F46EE
:100AA000460000000A0D524453204F4E0000000043
:100AB0000A0D4D757465204F4E00000010B5E44CD2
:100AC0000020E07220730120042100F045F8217815
:100AD00081420FD1207A00280FD0207A401E207248
:100AE000207A002809D160782178884205D0012039
:100AF000E07202E02070012020720120052100F048
:100B00002BF8A17881420FD1607A00280FD0607A4B
:100B1000401E6072607A002809D1E078A17888428E
:100B200005D00120207302E0A07001206072E07AFD
:100B3000002802D1207B00280DD014206071FFF71F
:100B400005FEE07A002801D020786070207B002824
:100B500001D0A078E07010BD10B502460020032A35
:100B600022D8C0467A4412795200974401060B10ED
:100B7000012213468B4087490DE0012213468B402A
:100B8000834908E0012213468B40804903E001229B
:100B900013468B407C490C681C4205D008681840FD
:100BA000002800D10246104610BDC046F0B587B0FF
:100BB000FA48016840220A4302600124E0073F49E5
:100BC0000860A007086060070860200708603C48CC
:100BD00000250560C560C56104624462112141665B
:100BE00091218166C1660167842190224250825022
:100BF000942144509821445045608562314E2846E6
:100C000029462A46B047284621462246B0470221B7
:100C1000069128462246B0470321059128462246E0
:100C2000B0470421049128462246B047052103918C
:100C300028462246B0470621029128462A46B04758
:100C40000721019128462A46B047082100912846ED
:100C50002A46B0470927284639462A46B0470B217D
:100C600028462246B047204629462A46B047204615
:100C700021462A46B047204606992A46B0472046D4
:100C800005992A46B047204604992A46B04720468F
:100C900003992A46B047204602992A46B047204683
:100CA00001992246B047204600992246B047204687
:100CB00039462A46B04707B0F0BDC04680E100E0A3
:100CC00010400440C90C000010B5032827D8C046C6
:100CD00078440079400087440105090D01208840CF
:100CE00012490AE0012088400F4906E001208840AF
:100CF0000C4902E00120884009490C6804400B6857
:100D0000012A04D1002C02D103430B6010BD034023
:100D1000002A04D1002B02D00A6882430A6010BD69
:100D2000008003500080025000800150008000507D
:100D300010B5032827D8C04678440079400087447E
:100D40000105090D0120884012490AE00120884070
:100D50000F4906E0012088400C4902E0012088404C
:100D600009490C6804400B68012A04D1002C02D107
:100D700003430B6010BD0340002A04D1002B02D0B6
:100D80000A6882430A6010BDFC3F0350FC3F0250DA
:100D9000FC3F0150FC3F005070B55A200F4D285EBB
:100DA000002819DA2C4610340D49204600F00CFBBF
:100DB000002811D00BA00E4EB0472046B0470DA022
:100DC000B047074C2046B04700202876286168616C
:100DD00041212046FFF715FB70BDC04660000010A2
:100DE000B00100100A524453204E616D653A2D0047
:100DF000D51D00000A52445320546578743A2D00E2
:100E000080B50120FFF77CFC00F0AAFA00F006F89C
:100E100000F0E4F800F066F880BD0000B0B50124F1
:100E200004212046FFF798FE054605212046FFF7DE
:100E300093FE07490D704D708870C87000200871CE
:100E400014224A71087248728872C8804873B0BD13
:100E500080010010B0B5FFF7A9FE00F01BF87D205F
:100E6000C4000B4D28682146FFF7CDFA411E002033
:100E700000F076F828682146FFF7C5FA411E0120E8
:100E800000F06EF84B20C00100F0E6FEB0BDC04699
:100E9000D00000101148016802220A430260C16FAD
:100EA00020220A43C2673F20C1430D4802680A401E
:100EB0000260026801231A43026042680A404260ED
:100EC0004168194341609807F02141610161FF21A8
:100ED00081614021016001607047C0460480044088
:100EE0003040044080B5AE480121C17000F002F8E6
:100EF00080BDC046F8B51748002404600521164F90
:100F000020462246B847C820144988470226204672
:100F100031462246B8470125204629462A46B84789
:100F2000642738460D498847204631462A460A4BF1
:100F300098473846094EB04706480560FFF7AAFFB4
:100F40004B208000B04700F001F9E64885704470FE
:100F5000F8BDC04634400440310D000009080000CF
:100F6000012814D0002818D10C48026880231343AC
:100F700003600B48002242600A484260026001613F
:100F80000321C16001200004F3490860704701207B
:100F9000000202490A6802430A60704780800440E8
:100FA0009001001008C0004010B500200921012464
:100FB0002246FFF7BDFE082120462246FFF7B8FE75
:100FC00010BD10B50921002420462246FFF7B0FECF
:100FD000012008212246FFF7ABFE10BD80B53E215F
:100FE0002C48002242548287024A11689288FFF7F7
:100FF000B1FC80BDEC000010BCB50146214D287845
:10100000002828D0287A6988814238D26889A9883E
:10101000814205D2FFF7D5FFA888411CA9806889C5
:10102000EA888BB2834209D3AB899A4206D2FFF792
:10103000BBFFE888421CEA806889A988AB8992B224
:101040009A421ED389B281421BD30020686068880F
:10105000401C6880BCBD3E20085C002811D06C4656
:101060002046FFF753FB2846083006222146FFF7AB
:1010700069F901202870002068806860BCBD0020EC
:101080002870BCBD7001001080B50248FFF7B4FFA6
:1010900080BDC046C0020010B0B5154815490160BA
:1010A000154900238B630122CA63CB63CA63CB6BF0
:1010B0001342FCD00B68114C1C40232323430B60CC
:1010C0000F4B1C688025AC431C604B681342FCD05E
:1010D00003238B66CA660023CB66CA66CB6E1342B7
:1010E000FCD00A670168890041608160B0BDC046DC
:1010F000C8000010001BB7000880044000FEFFFF7E
:10110000388204400448026802210A4202D0426840
:101110000A4342607047C046188001500448026884
:1011200002210A4202D042680A4342607047C04628
:10113000188002500448026820210A4202D0426806
:101140000A4342607047C04618800350B0B500F0B3
:1011500053FBC820FFF758FB812000025421D84CD4
:101160006052104DA8474B208000FFF74DFB4A20EE
:101170000D492152A8472120C0014E216052A847A5
:101180005020215A094A0A402252215A084A0A404C
:101190002252215A10220A432252A847B0BDC0460B
:1011A00060000010891F000001400000CFFF000018
:1011B000F0FF0000B0B54B4DE878012810D00228B0
:1011C00020D1A878012824D0002867D10024EC7011
:1011D000204600F08DFC204600F076FC4BA05BE042
:1011E000A87801285AD1687A002803D000206872B4
:1011F00000F074FE052028703B4C207901282FD187
:10120000A88934E0A878012848D10120E87042A0DC
:1012100042E02879002809D06889002804D0401EBF
:1012200068813949084201D1002028712E4C20786C
:10123000002806D028780F2801D800F059FC00209B
:101240002070687800282AD0A88900F0EDFB0020E3
:10125000E8716870A889E98981421FD0E881B0BD32
:1012600001202071A87940002818408BA88100F047
:10127000DBFB002068710221E970287201202070D8
:1012800000F022FC19A000F0A5FDAA891C4C1D4904
:101290002046FEF7A5FF204600F09CFDB0BD287A51
:1012A0000028D7D0E078401CE070C0B20A28D1D125
:1012B0000020E07000F0A0FAFFF76EFD5A20285AD7
:1012C000010A01200840E871A178814203D16078C9
:1012D000002803D1BEE7A07004206070401E60703B
:1012E000B8E7C04660000010700200100A0D52619D
:1012F00064696F20496E697469616C697A6564001C
:10130000000200108A200000FFFF00000A0D506F4D
:10131000776572204F4646000A0D506F7765722040
:101320004F4E0000B0B50B490878012811D10020BC
:10133000087001214C058021074D6C5007490A783F
:10134000552A03D18A78AA2A00D14878FFF72AFBC8
:101350002C60B0BDD500001000E100E0D900001005
:10136000F8B5174F3878022813D0012826D139460E
:101370000E310024182520462A46FFF759FA39462F
:10138000263180202A46FFF753FA00F02DFD3C70ED
:10139000F8BD0C480078012810D100F083FD3C46D0
:1013A0003E3400251826284621463246FFF78EFA9D
:1013B000802021463246FFF789FA3D70F8BDC046CD
:1013C000000000106200001070B58CB00D4606469B
:1013D0000BA8002101704E20BC4C21546020DA4A39
:1013E000105A03AB18806220105A02AB1880617348
:1013F0006420105A01A908809089D189814208D0BF
:10140000601D0921FEF7FBFF20460E304121FEF74B
:10141000F6FF03A80088000B0AA9087008780228C4
:101420001DD0002847D1039840000621014009A89B
:1014300001700199090A06AA117004A9019A0A709B
:10144000611D069A0378CA54049A007808184270FD
:1014500009223046FEF776FF0BA801212AE0039807
:1014600080003C21014008A801700299090A07AADE
:10147000117005A9029A0A700199090A06AA117049
:1014800004A9019A0A700E3407990278A1540599AB
:101490000278A218517006990278A21891700499E6
:1014A00000782018C170412228462146FEF74AFFE5
:1014B0000BA8022101700BA800780CB070BDC046CB
:1014C00060000010B0B52B4DA978012951D1022838
:1014D0001BD001284DD168790021091A4141697159
:1014E000687900282ED02EA000F074FCAA79234C35
:1014F0002F492046FEF774FE204600F06BFCA879C9
:1015000040002818428BAA8120E0A87940002818C2
:10151000AA8942830286012068711748022101705E
:10152000164C17492046FEF75BFE204600F052FCA1
:10153000AA7914A12046FEF753FE204600F04AFC8B
:1015400015480EE01BA000F045FCAA890B4C0C4985
:101550002046FEF745FE204600F03CFC0120687066
:101560008248028841880904114382880B48FFF7AA
:10157000F1F9B0BD60000010000000100002001082
:101580008A2000000A0D4368616E6E656C20256438
:101590002053617665640000F8000010C00200105E
:1015A0000A0D507265736574204D6F64650000000C
:1015B000792000000A0D4D616E75616C204D6F64DD
:1015C00065000000B0B5C14DA97801293BD10028C4
:1015D00019D0012837D13C480288418809041143B9
:1015E00082886348FFF7B6F9287900282CD028783C
:1015F0000E2801D8401C28706421698133490122DA
:101600000A70C2B217E030480288418809041143C9
:1016100082885748FFF79EF92879002824D0287837
:101620000022002802D0401E2870C2B264206881C7
:10163000264801210170264C26492046FEF7D0FDA0
:10164000204600F0C7FBB0BD6879002828D0A879F3
:101650000828F8D8401CA871C2B250002818408B46
:1016600020498842EFD20EE06879002820D0A8797E
:101670000028E8D0401EA871C2B250002818408B44
:1016800015498842DFD901216970A881104C13499E
:101690002046FEF7A5FD204600F09CFBAA8911E03C
:1016A000A88910498842CED2012169700A3006E02B
:1016B000A88909498842C6D9012169700A38A881D8
:1016C00082B2034C0649B8E7F20000107002001025
:1016D00000020010702000002E220000792000007F
:1016E0008A200000302A000080B502280ED0012890
:1016F00019D115488178012915D101790022521A92
:101700004A41027100290FD010A010E00E480021BC
:10171000417101718178002903D0012903D1002191
:1017200000E00121817080BD642141810BA000F0A7
:1017300051FB0E48028841880904114382880C48F5
:10174000FFF708F980BDC046600000100A0D566F13
:101750006C2053656C204F46460000000A0D566F02
:101760006C2053656C204F4E20000000E4000010F8
:10177000C00200107CB50D46044601AE202030703A
:1017800072B600F0E9F930780126304300F03AF9FA
:10179000B007416840291AD1022D1CD3082181616C
:1017A0000368042201E0816103681343036001E0E0
:1017B0000C23836103680B42FCD083682370EBB277
:1017C0006D1E641C022BF3D0012BECD10DE000F058
:1017D000D3F900200DE0012D07D10C2181610168B2
:1017E00008221142FBD08068207000F0C5F962B673
:1017F000012002B070BD000010B588B06C462021F9
:101800002046FFF7B7FF0098617802020A435A2189
:10181000BE484252A178E278090211435C2281520B
:1018200001996279090211435E228152A179E2791C
:1018300009021143602281520299627A090211431E
:1018400062228152A17AE27A090211436422815212
:101850000399627B0902114346228152A17BE27BFC
:1018600009021143482281520499627C0902114302
:101870004A228152A17CE27C090211434C2281520E
:101880000599627D090211434E228152A17DE27DBC
:1018900009021143502281520699627E09021143C6
:1018A00052228152A17EE27E0902114354228152CA
:1018B0000799627F0902114356228152A17FE27F7C
:1018C000090211435822815208B010BD6000001077
:1018D00080B500F003F800F049F880BDB0B50024F1
:1018E00008212046FFF738F9454D28702878002850
:1018F0001ED02878002802D1687800282FD02878B8
:10190000002802D06878002824D02878002823D026
:101910006878002820D0A87804280FD1A86800286B
:101920000CD0A868642809D8AC60AC7001200EE027
:1019300068780028DDD0AC6001200CE0A87804288D
:101940000AD1A868652807D3AC60AC700220FFF705
:10195000B9FD01E00420A87028786870B0BDA878AF
:101960000128F9D1A868401CA860F5E7B0B50024AB
:1019700009212046FFF7F0F8211A4141204DE97076
:10198000E87800281ED0E878002802D128790028BD
:101990002FD0E878002802D02879002824D0E878D1
:1019A000002823D02879002820D0687904280FD176
:1019B000E86800280CD0E868642809D8EC606C71ED
:1019C00001200EE028790028DDD0EC6001200CE039
:1019D000687904280AD1E868652807D3EC606C713F
:1019E0000220FFF781FE01E004206871E878287189
:1019F000B0BD68790128F9D1E868401CE860F5E7D6
:101A00006001001080B50121890788602820886165
:101A100004480A6808231A4203D1401EF9D100F095
:101A2000ABF880BD31750000F8B52349411889B283
:101A30000025224A914205D8214940180A21FEF783
:101A4000E2FCC5B2FFF7D8FE4C22304CA05A7F21F1
:101A500049020140A152A05A2843A052A05A194954
:101A6000491C01430092A15200F08EFAAD204601BC
:101A7000012087033546280408D0FFF7BDFE5A2011
:101A8000205A384000046D1E0028F4D0FFF7B4FE41
:101A90000099605A0B4A1040605200F075FA300409
:101AA00008D0FFF7A9FE5A20205A38400004761EBD
:101AB0000028F4D1F8BDC046D1DDFFFF01080000C9
:101AC000D2DDFFFFFF7F000010B54E210F4A535AB1
:101AD000064C1C4054520C230824002800D02346F6
:101AE000505A1843505200F04FFA10BDF3FF000057
:101AF00010B55021054A535A054C1C405452535AB4
:101B00000343535200F040FA10BDC046600000107D
:101B1000F0FF00000F484179002916D04179491E95
:101B20004171017900290DD0142207E04279002A81
:101B30000A4603D04279521E42710A46511EFF23C3
:101B40001A42F3D14179002900D070470021C171B8
:101B5000017170478001001001208007FF21816121
:101B6000016860220A430260026808210A42FBD031
:101B700042680A42FCD07047012080070821816139
:101B8000016814220A430260016810221142FBD14D
:101B90007047000010B5084C00202060074801681D
:101BA000202291430160FFF777FA01200004216EA3
:101BB0000143216610BDC0462080044038820440A5
:101BC0001D48012101601D484168491C4160416870
:101BD000002906D0002141600178002901D10121AE
:101BE00001708168491C816081680A2906D300213F
:101BF00081604178002901D101214170C168491CEF
:101C0000C160C168642906D30021C16081780029C0
:101C100001D1012181700169491C01610169C90873
:101C20007D2904D300210161C178002900D07047CB
:101C30000121C1707047C04600C0004090010010F3
:101C400003480121016003480168491C0160704795
:101C50000000014000030010F8B500905C48012529
:101C600005706E0580201D490E500727F8431C495A
:101C70000A6802400A600A682A430A604A68024009
:101C80004A60486828434860280316490A680243A6
:101C90000A608D614D4C8320E060896912480068BC
:101CA000FEF7B1FB00090099FEF7ADFB010A616088
:101CB000C0B220600320E060A760606960696021B5
:101CC00001406029FAD100E0206860692842FBD118
:101CD0000248066005206060F8BDC04600E100E0F3
:101CE000A440044080800440D000001010B5374A62
:101CF00007E0536920242342FBD003781360491E78
:101D0000401C0029F5D110BD1CB53048816801AADE
:101D10001170117849081170117807230B40137066
:101D2000117803290BD141696A4611701378117833
:101D30009E22134229D0264AD16000681CBD01A909
:101D40000978022916D10068214CA1684A1CA260BA
:101D500061188870A068032837D16078002806D100
:101D6000A268601DA11CFEF7EDFA01206070002042
:101D7000A0601CBD01A90978062915D10120000227
:101D80001349CA680243CA601CBDC9071DD0016857
:101D90000F488268531C8360821891708168032900
:101DA00013D1002181601CBD01A9097801290CD142
:101DB00040696946087008782021084202D1044829
:101DC000002101E00248012101701CBD008000409B
:101DD000D400001010B50446FEF792FA01462046E2
:101DE000FFF784FF10BD0000F8B53A4F3C460E34B3
:101DF000162620463146FEF765FC78812520385CA2
:101E00002421795C00020843F8803D4626352846A7
:101E10003146FEF757FCB8813D20385C3C21795CA7
:101E20000002084338817889F988884201D101206D
:101E30007870B8893989884201D10120B8707878E2
:101E4000012802D1B87801280FD07878012802D172
:101E5000B878012809D1787801280CD0B878012801
:101E600009D10E481622294602E00C4816222146C6
:101E7000FEF768FA0DE0787801280AD0B8780128D2
:101E800007D000200549274A01E00A52801C142887
:101E9000FBD1034801210170F8BDC0467A00001053
:101EA0006900001070B50B4E30463E300A4C1625C6
:101EB00021462A46FEF746FA20462946FEF702FC4E
:101EC000B080B08854217054B088000A55217054F5
:101ED00070BDC0460000001090000010F0B5132047
:101EE000C143104A3E48104B104C0AE04518EE8D95
:101EF000F718BFB2A74201D3EA8516464427EE532E
:101F0000891C0029F2D1C18D0A2905D34421002260
:101F10004252C2858271F0BDCAB24423C25281715D
:101F2000F0BDC0462E220000D2DDFFFF03080000F6
:101F3000F8B50C46054672B6FFF70EFE2020FFF7F7
:101F400061FD0F4E3068182814D10E4F0BE0287831
:101F5000FFF758FD38463168282902D0401EFAD1D3
:101F600008E06D1C641E2006F1D1FFF705FE62B685
:101F7000012002E0FFF700FE002001B0F0BDC046E6
:101F80000400004031750000F8B54A221449885A0F
:101F9000030A01A803708A5A42704C228B5A1B0A0A
:101FA00083708A5AC2704E228B5A1B0A03718A5A56
:101FB000427150228B5A1B0A83718A5AC271522273
:101FC0008B5A1B0A03728A5A427254228B5A1B0A7A
:101FD0008372895AC1720C21FFF7AAFF8FBDC046D8
:101FE00060000010F8B5FFF7D5FDFEF733FFFEF7F0
:101FF00007FF00242046FEF7C9FC0120FEF7C6FCBF
:10200000174A184B194916461F46174D10780028D5
:1020100005D01470FEF752FD3B463246134918783E
:10202000002809D01C70FFF753FCFFF72DF8FFF7CD
:10203000C1F83B4632460D492878002809D02C705B
:10204000FFF768FDFFF78CF9FFF76CF93B46324666
:10205000064908780028D9D000200870D6E7C04685
:1020600090010010910100109201001093010010E6
:102070000A566F6C3A2D2564000A0D4368616E6E36
:10208000656C204E6F3A2D2564000A0D467265710D
:1020900075656E63793A2D2564000000C02000004C
:1020A000000000100001000004010000C021000039
:1020B00000010010080400002001000000000000E2
:1020C000010000000000000000000000000000000F
:1020D0000000000000000000000000000000000000
:1020E00000000000000000000000000000000000F0
:1020F00000000000000000000000000000000000E0
:1021000000000000000000000000000000000000CF
:1021100000000000000000000000000000000000BF
:1021200001000000000000000000000000000000AE
:10213000000000000000000000002E222E222E22AF
:102140002E222E222E222E222E222E222E2200005F
:102150002E222E222E222E222E222E222E222E22FF
:102160002E222E22000000000000000000000000CF
:10217000000000000000000000000000000000005F
:102180000000000000000000001BB700001BB700AB
:10219000001BB7000100000000000000000000006C
:1021A0000000000001000A001900000005001900ED
:1021B00019000100020002000100C8000A0000002E
:04000005000001AD49
:00000001FF
