:020000040000fa
:080000000001040000000000f3
:020000040000fa
:10020000efab2000eebe20000e01880000000000d1
:100210000c000700205321000100200011000700fe
:10022000000020000000e000020032000000020098
:10023000000000006e030200000000000040da0031
:100240000000fe004440a900200220000000e00061
:100250000300320000002000a00188004440a800f4
:100260000000060091018800800078000000eb008b
:1002700015003700e280400032a0b4009101ba00be
:10028000e280400032a0b4009102ba00e280400057
:1002900032a0b4000002eb00472bde00f507b200ed
:1002a000602ce10004003a000059eb008301e900f2
:1002b000fdff3e00040037006128e100010032002c
:1002c0000082eb00040007001101ba000200e00008
:1002d000e8ff3a00000006003159ba008301e90046
:1002e0000c0032002159ba008301e90008003200f5
:1002f0000400e00003003a00e280400032a0b400b5
:10030000f5ff370011d9ba008301e900faff3a007e
:100310008100e800e180400032a0b4000000060047
:100320003200f800910188008002780062004000ed
:10033000e08048003549ba003204e0000410a7000c
:10034000100032008301e9000e0032002549ba0096
:100350003204e0000410a7000a0032008301e90023
:10036000080032000408a300eeff320015c9ba00ed
:100370003204e0000410a700020032008301e9000b
:10038000e8ff3a003200f900000006003200f800f1
:10039000910188000008bb00410424006210e100c4
:1003a00004003200000220000010e1000a003a00c0
:1003b00051042400013b88000500fc005105200089
:1003c000313b8800a10a2000313b880061e7a8008a
:1003d00000000000000000003200f90000000600ec
:1003e0003200f80060042400003b8800f2ff370070
:1003f0003200f8009101880041002400013b880090
:100400000208bb00ecff37003200f80091018800c1
:1004100051002400013b8800030120003218bb007a
:100420008301e900fdff3a00e3ff37000400fa0012
:10043000000f7800110798000000eb00000888000a
:100440001e009000100888001e0078002008880018
:100450000080fa00000006000000fa00000880009a
:100460000080fa00000006000200fa00000f780089
:100470001e007800000888000080fa0000000600d6
:100480000000fa008c60a90005e1a9008460a900c1
:100490000080fa00000006000200fa00000f780059
:1004a0008460a9001e00780067406000674060001b
:1004b00067406000674060004401dd005109200092
:1004c00091407800f0c8b30000c0600002407000a6
:1004d00095e0b7009e007800688060004300de0071
:1004e00061406000614060004301dd00c108200000
:1004f0009140780070cfb30000c0600002407000ef
:100500008ce0b7000080fa00000006000400fa004a
:10051000000f7800110798000000eb0030088800f9
:100520001e009000600888001e0078008008880087
:100530001061a9000080fa00000006000000fa0027
:10054000300880000080fa00000006000200fa0077
:10055000000f78001e007800300888000080fa0044
:10056000000006000000fa008cc0a90011e1a900fb
:1005700084c0a9000080fa00000006000200fa0012
:10058000000f780084c0a9001e007800674060005a
:1005900067406000674060006741600071092000ab
:1005a0009140780080cfb30000c06000024070002e
:1005b00097e0b7009e007800688060004300de008e
:1005c00061406000614060004601dd00c10820001c
:1005d00091407800f0cbb30000c060000240700092
:1005e0008ce0b7000080fa00000006000400fa006a
:1005f000000f7800110798000000eb0050088800f9
:100600001e009000700888001e0078009008880086
:100610000080fa00000006000000fa005008800088
:100620000080fa00000006000200fa00000f7800c7
:100630001e007800500888000080fa0000000600c4
:100640000000fa008ce0a90013e1a90084e0a900f1
:100650000080fa00000006000200fa00000f780097
:1006600084e0a9001e0078006740600067406000d9
:1006700067406000674060004401dd0071092000b0
:1006800091407800f0c8b30000c0600002407000e4
:1006900097e0b7009e007800688060004300de00ad
:1006a00061406000c700dd008cc0bf000074a10085
:1006b000014070008ce0b7000080fa0000000600e6
:1006c0008001eb0002003700817178008301e800af
:1006d000828f5100fcff3a00000006000200fa0081
:1006e00080322200000f78001e0fe9000080eb002e
:1006f0009e0f1000fcff3a003600070000c02f00dc
:10070000f1072000f053880001548800930007008f
:1007100003000700b808070074000700feff370059
:100720000000fa000040eb0059eab7008040eb00ff
:100730000040eb0012010700960607000080fa0057
:10074000000006000000fa008040eb0010c0b3007b
:100750000b01070000322000010020002c010700df
:100760008040eb000040eb00050107000080fa002c
:10077000000006000000fa008040eb0010c0b3004b
:10078000ff000700003220000100200020010700c8
:1007900011c0b30010c0b300f90007000080fa00d8
:1007a000000006000000fa0090012000a010880060
:1007b00000402800601088000004200070108800ad
:1007c0000f42a8008520a9008d20a8000080fa0013
:1007d000000006000000fa000000eb000015880091
:1007e000f00f200040158800da02a900dc02a90001
:1007f000d802a900da22a900dc22a900d822a90087
:10080000da42a900dc42a900d842a900da62a900b4
:10081000dc62a900d862a900da82a900dc82a90002
:10082000d882a900daa2a900dca2a900d8a2a90056
:10083000db02a900dd02a900d902a900d402a900a7
:10084000d602a900d202a900d422a900d622a9006a
:10085000d222a900cfa2a900cda2a900cfc2a9008f
:10086000cdc2a800c882a900ca82a900c682a80079
:10087000c8a2a900caa2a900c6a2a800c862a9006d
:10088000ca62a900c662a900c842a900ca42a9005a
:10089000c642a900c802a900ca02a900c602a8004f
:1008a000c822a900ca22a900c622a800e042a900c5
:1008b000e242a900de42a900e062a900e262a900ca
:1008c000de62a9000080eb00f3fe070001f42100c6
:1008d00000002800d5fe0700b2ff070095010700c1
:1008e000b80207000080fa00000006000200fa00cb
:1008f000a0cab300004f78005acabf00e14f5000b1
:1009000014003a000040eb005aeab7002606070040
:10091000e0528000e10f500002003a00d5020700cb
:1009200030080700e0528000e20f500001003a005a
:1009300016000700e0528000e30f500001003a006b
:1009400080020700e0528000e40f500001003a00ee
:1009500059cabf000080fa00000006000000fa003b
:10096000f0538000015480000002eb0003022000dd
:10097000e2a520006afe0700f052800000538000cc
:10098000105380000080fa00000006000000fa000a
:1009900071a820009140780058cabf0080cf500055
:1009a0003900320087cabf0058eab70059cabf00f1
:1009b0000004e0001e003a0087cabf000004e00007
:1009c0003100320050548000e20f50002e003a00f7
:1009d00059cabf000004e0002b003a0010c0b30069
:1009e00059eab700b1a88400c2a88400d3a8840043
:1009f00080a120001e070700408020006406070039
:100a0000007d2000010020008100070040802000c0
:100a100081060700c0122000010020007c000700b2
:100a2000408020003506070052ff070016003700ff
:100a300087cabf000004e00013003a005054800051
:100a4000e20f500010003a0059cabf00e14f5000b9
:100a50000d003a000040eb0059eab70039ff0700eb
:100a6000408020005b060700800c20000100200071
:100a700067000700e1a88400f2a8840003a98400ad
:100a800080a12000fa06070086cabf000004e0002b
:100a90000500320059cabf00e14f500002003a0081
:100aa0000040eb0086eab7000080fa000000060074
:100ab0000000fa008c00a900f0538000015480006f
:100ac0000202200031fe070061c7bf0001c8b30069
:100ad000014060000004e000fbff3a00100120002c
:100ae000f0528800200220000053880030032000cc
:100af00010538800e2a52000f053800001548000cc
:100b000041fe070061c7bf0001c8b300014060009b
:100b10000004e000fbff3a008c00a8000080fa000f
:100b2000000006000400fa00000f7800214798003a
:100b30008c00a9000c0037000fc2bf0062406000ab
:100b40000004e000fcff3a001e007800104078002e
:100b50000080fb00801088001e0fe8002e409000ef
:100b60000040e900204798002e4090000004e0007b
:100b7000f1ff3a008c00a8000080fa000000060097
:100b80000400fa00004f7800114798001e407800da
:100b9000204798002e4090000004e0000200320040
:100ba00010c0b300204798002e40900061416000c3
:100bb000412d200091407800e0cfb30000c06000dc
:100bc00002407000d4e2b7001e4090003047980009
:100bd0003e4090000004e0000200320010c0b3006c
:100be000304798003e409000614060000041400066
:100bf000412d200091407800d0cfb30000c06000ac
:100c000002407000d4e2b7000080fa000000060045
:100c10000800fa0020079800310798006000b8002b
:100c2000008fbe0084c0a9008cc0a9000000eb00aa
:100c30003008880001f421000000280033fe07007e
:100c400010002000010020001e0f40005e974800a9
:100c500084c0bf000044b2000004e000fcff32008a
:100c600084c0a9002e009000be009000be0f1000ae
:100c7000ae8f1800f2ff39003afe07000080fa003c
:100c80000000060000a0fe003600f800849fbe00b1
:100c9000869fbe003400f80004002000a4018800f4
:100ca0000000fa008460a900c4000700d05580004d
:100cb00052002000110009000280d8008000fd00d1
:100cc0000000e00004003a0010c0b3005aeab70088
:100cd0000000eb00e0528800d0558000a200200008
:100ce000110009000280d8008000fd000000e00033
:100cf00004003a0010c0b3005aeab7001000200008
:100d0000e0528800d0558000220320001100090025
:100d10000280d8008000fd000000e00004003a00de
:100d200010c0b3005aeab70020002000e05288004b
:100d3000d055800042062000110009000280d80032
:100d40008000fd000000e00004003a0010c0b30085
:100d50005aeab70030002000e0528800d0558000e9
:100d6000823e2000110009000280d8008000fd00b2
:100d70000000e00004003a0010c0b3005aeab700d7
:100d800040002000e0528800d05580000000e800bc
:100d9000d05588000080fa003400f9004f03be00ef
:100da0004f02be003600f9000080fe000040060041
:100db00000a0fe003400f800881f78000800200022
:100dc000a80188004f0478000000fa008420a900e0
:100dd0008c20a9000080fa003400f9000080fe0099
:100de0000040060000a0fe003400f800881f7800d4
:100df00008002000a80188004f0478000000fa00d5
:100e000084e0a90013e1a9008ce0a9000000eb0038
:100e1000500888000080fa003400f9000080fe00cd
:100e20000040060000a0fe003400f800881f780093
:100e300008002000a80188004f0478000000fa0094
:100e400084c0a9000080fa003400f9000080fe0090
:100e50000040060000a0fe003600f800849fbe009f
:100e6000869fbe003400f80004002000a401880022
:100e70000200fa008520a90090108000000f780081
:100e80001e0078009f0307000080fa003400f9007c
:100e90004f03be004f02be003600f9000080fe0086
:100ea000004006003400f800881f78000800200089
:100eb000a801880008802000b81f7800e8bf200043
:100ec000b81f78000000fa008400a9000080fa0032
:100ed000e8bf20004f147800088020004f147800ed
:100ee0004f0478003400f900004006003400f80098
:100ef000881f780008002000a801880008802000d2
:100f0000b81f7800e8bf2000b81f78000000fa0082
:100f100086e0a9000080fa00e8bf20004f147800a6
:100f2000088020004f1478004f0478003400f90046
:100f3000004006000200fa00c8c2bf000080fb00ab
:100f40004400de006140600010479800c8c2bf0046
:100f500061406000004f78001e409000a1eab70099
:100f60001e409000a3eab7001e407800a2eab70036
:100f70001e407800a4eab7000040eb00a6eab700e4
:100f800040c1b300a0eab7000040eb00aaeab700f6
:100f90000040eb00a7eab7000040eb00abeab70067
:100fa0000040eb00aceab7000040eb00a5eab70058
:100fb000dc0007000080fa00000006000200fa00d2
:100fc0000040eb00a8eab7000040eb00a9eab70038
:100fd000c8c2bf000080fb004400de00614060002a
:100fe0001047980011aa2000914078001e40900000
:100ff00080cf5000050032001e409000a1eab700eb
:1010000010c0b300abeab70010003700abcabf0096
:101010000004e0000d003200abcabf000040e90050
:10102000abeab700abcabf000004e00007003a001b
:1010300031aa200091407800a1cabf0080cf5000a3
:101040000200320010c0b300a8eab700c8c2bf0057
:1010500061406000004f7800a2cabf009e4f500060
:10106000050032001e407800a2eab70010c0b300ad
:10107000aceab70010003700accabf000004e000c3
:101080000d003200accabf000040e900aceab70076
:10109000accabf000004e00007003a0041aa2000eb
:1010a00091407800a2cabf0080cf500002003200f9
:1010b00010c0b300a9eab700a8cabf000004e0004e
:1010c00003003a00a9cabf000004e0000d0032008e
:1010d00040c1b300a0eab7000c000700a8cabf00d7
:1010e0000004e00002003200a1cabf00a3eab7007a
:1010f000a9cabf000004e00002003200a2cabf007b
:10110000a4eab7000080fa00000006000000fa0020
:10111000a3cabf000004e0002b003200a1cabf0038
:101120000004e00011003200a4cabf000004e00087
:1011300007003200a2cabf000004e0004c003a00e1
:10114000a7cabf000040e900a7eab700480037007f
:10115000a2cabf000004e00045003200a7cabf00d9
:101160000040e800a7eab70041003700a4cabf006a
:101170000004e0000a003200a2cabf000004e00040
:1011800004003200a7cabf000040e800a7eab70089
:101190003700370010c0b300a5eab70034003700ad
:1011a000a2cabf000004e0000300320010c0b30078
:1011b000a5eab7002e003700a7cabf000040e9002b
:1011c000a7eab7002a003700a1cabf000004e00068
:1011d00017003200a4cabf000004e0000a00320079
:1011e000a2cabf000004e00004003200a7cabf008a
:1011f0000040e900a7eab7001d00370010c0b300a7
:10120000a5eab7001a003700a2cabf000004e00038
:101210000300320010c0b300a5eab7001400370085
:10122000a7cabf000040e800a7eab70010003700d7
:10123000a4cabf000004e00007003200a2cabf0039
:101240000004e0000a003a00a7cabf000040e8001e
:10125000a7eab70006003700a2cabf000004e000fa
:1012600003003200a7cabf000040e900a7eab700a8
:10127000a5cabf000004e000110032000040eb00ee
:10128000a5eab70010c0b300a6eab700aacabf001b
:101290000004e00004003400a7cabf000040e800da
:1012a000a7eab70006003700aacabf000004e000a2
:1012b00003003d00a7cabf000040e900a7eab7004d
:1012c000a7cabf00aaeab700a7cabf00e24f400002
:1012d00006003a000040eb00a7eab700adcabf0025
:1012e0000040e800adeab7000c003700a7cabf0015
:1012f000e24f500006003a000040eb00a7eab700ba
:10130000adcabf000040e900adeab70003003700f6
:10131000a7cabf000004e000000032000080fa000d
:10132000000006000000fa000040eb00adeab70044
:101330000080fa00000006000000fa000080fa00b9
:10134000000006000200fa00a0cabf000004e0008e
:101350001a003200a0cabf000040e900a0eab700ae
:10136000a6cabf000004e0000d00320040c1b30077
:10137000004f780006003700a0cabf000004e0005c
:1013800003003200a0cabf000040e900a0eab70095
:101390001e4fe90000c0eb009e4f1000f6ff3a0020
:1013a000a0cabf000004e00004003a000040eb00c7
:1013b000a6eab7000040eb00a7eab7000080fa00f9
:1013c000000006000200fa000000eb002054880034
:1013d0000040eb00004f7800210037009e80fb00aa
:1013e00060a82000808040000040eb00804878002a
:1013f0001e80fb0001a920004200dd000101400029
:101400006000b8000089be009e80fb00c0a82000dc
:10141000808040000040eb00804878009e80fb0008
:10142000e0a82000808040000040eb008048780069
:101430001e80fb008000400080a8200080804000cb
:101440000000eb00800878009e80fb00c0ab20000d
:101450008080400000c0eb00804878001e4fe8000c
:1014600010c0b3009e4f1000dcff36000080fa0071
:10147000000006000400fa002054800010079800c5
:101480001e0090000000e000040032001e009000ea
:10149000e10f500004003200070237001000200066
:1014a000205488000402370082cabf000080fb007d
:1014b000000f78001e0078000000e00004003200f9
:1014c0001e007800e10f5000070032000b003700cb
:1014d000c8c2bf000080fb004500de006140600024
:1014e0008ceab70005003700c8c2bf000080fb00cf
:1014f0000000d100614060008deab70082cabf00e1
:101500008080fb00c0a820000080400010407800d0
:101510000004e00021003a0082cabf008080fb0086
:10152000e0a8200000804000104078000004e000a7
:101530001a003a0082cabf008080fb00c0ab2000c6
:101540008080400020c0b3008048780082cabf007d
:101550000082fb0001a920004220dd0001004000c4
:101560001000be0061014000e081480001a9200098
:101570004220dd00010040000288be0082cabf0098
:101580000080fb0081a920004200dd000101400035
:101590006000b8000089be00a100370082cabf0009
:1015a0008080fb00c0a82000008040001040780030
:1015b000e14f500021003a0082cabf008080fb004a
:1015c000e0a8200000804000104078000004e00007
:1015d0001a003a0082cabf008080fb00c0ab200026
:1015e0008080400030c0b3008048780082cabf00cd
:1015f0000082fb0001a920004220dd000100400024
:101600001000be0061014000e081480001a92000f7
:101610004220dd00010040000288be0082cabf00f7
:101620000080fb0081a920004200dd000101400094
:101630006000b8000089be007900370082cabf0090
:101640008080fb00c0a8200000804000104078008f
:10165000e14f50004b003a0082cabf008080fb007f
:10166000e0a820000080400010407800e14f5000ca
:1016700044003a0082cabf008080fb00c0ab20005b
:101680000080400010407800e24f50000700320018
:1016900082cabf008080fb00c0ab200000804000f9
:1016a00010407800e34f500007003a0082cabf00a4
:1016b0008080fb00c0ab20008080400040c0b300b1
:1016c000804878001700370082cabf008080fb0086
:1016d000c0ab200000804000104078000004e00013
:1016e00010003a0082cabf000080fb0001a9200060
:1016f0004200dd00010040001000be00e00f50007d
:10170000e08f58000700320082cabf000080fb0053
:1017100001a920004200dd00010140006000b80086
:101720000089be0082cabf000080fb0081a92000a2
:101730004200dd00010040001001be00d001200089
:1017400001002000800f5100818f590034003e00bd
:1017500082cabf000082fb0081a920004220dd0078
:10176000010040001000be0061014000e08148001f
:1017700081a920004220dd00010040000288be0057
:101780002700370082cabf008080fb00c0a820006d
:1017900000804000104078000004e00020003a0083
:1017a00082cabf008080fb00e0a8200000804000cb
:1017b00010407800e14f500019003a0082cabf0083
:1017c0000080fb0081a920004200dd0001014000f3
:1017d0006000b8000089be0082cabf008080fb00a4
:1017e000c0ab20008080400010c0b300804878006b
:1017f00082cabf000082fb0001a920004220dd0058
:10180000010040001000be0061014000e08148007e
:1018100001a920004220dd00010040000288be0036
:1018200082cabf000080fb0081a920004200dd00c9
:10183000010040001001be00200020000100200037
:10184000800f5100818f59003700360082cabf00d7
:101850000080fb0081a920004200dd000100400063
:101860001001be00d001200001002000800f5100b7
:10187000818f59002c003e0082cabf00e14f50000a
:1018800029003a0082cabf008080fb00c0ab200064
:101890000080400010407800e44f500022003a00e1
:1018a00082cabf008080fb0060a82000008040004a
:1018b000104078000004e0001b00320082cabf0024
:1018c0008080fb0060a82000808040000040eb008a
:1018d0008048780082cabf000080fb008000400082
:1018e00080a8200080804000200020008008780030
:1018f00082cabf000080fb0081a920004200dd00f9
:1019000001014000e0012000010020000089be002c
:1019100082cabf008080fb00c0ab200080804000f6
:1019200000c0eb008048780082cabf000080fb0046
:1019300001a920004200dd00010040001001be00ae
:101940002000200001002000800f5100818f5900ed
:101950006300360082cabf000080fb0001a920009e
:101960004200dd00010040001001be00d001200057
:1019700001002000800f5100818f590058003e0067
:1019800082cabf00e14f500029003a0082cabf005e
:101990008080fb00c0ab2000008040001040780039
:1019a000e24f5000b2003a0082cabf008080fb00c4
:1019b00060a820008080400010c0b30080487800fc
:1019c00082cabf000080fb008000400080a8200089
:1019d00080804000200020008008780082cabf007c
:1019e0000080fb0001a920004200dd000101400051
:1019f0006000b8000089be0082cabf000080fb0002
:101a000081a920004200dd00010140006000b80013
:101a10000089be0082cabf008080fb00c0ab2000ee
:101a2000808040000040eb00804878009000370044
:101a300082cabf000004e0008d003a0082cabf00e5
:101a40008080fb00c0ab2000008040001040780088
:101a5000e44f500086003a0082cabf008080fb003d
:101a600060a820008080400010c0b300804878004b
:101a700082cabf000080fb008000400080a82000d8
:101a800080804000100020008008780082cabf00db
:101a90000080fb0001a920004200dd0001014000a0
:101aa0006000b8000089be0082cabf000080fb0051
:101ab00081a920004200dd00010140006000b80063
:101ac0000089be0082cabf008080fb00c0ab20003e
:101ad000808040000040eb008048780064003700c0
:101ae00082cabf000080fb0001a920004200dd0087
:101af000010040001001be00d001200001002000c4
:101b0000800f5100818f59002d00360082cabf001e
:101b10000080fb0001a920004200dd000100400020
:101b20001001be003006200001002000800f51008f
:101b3000818f590022003e0082cabf008080fb00d6
:101b4000c0ab20000080400010407800e44f5000ff
:101b500047003a0082cabf008080fb0060a82000d6
:101b60008080400010c0b3008048780082cabf0067
:101b70000080fb008000400080a8200080804000a2
:101b8000200020008008780082cabf000080fb008f
:101b900001a920004200dd00010140006000b80002
:101ba0000089be0082cabf008080fb00c0ab20005d
:101bb000808040000040eb00804878002c00370017
:101bc00082cabf000080fb0001a920004200dd00a6
:101bd000010040001001be0030062000010020007e
:101be000800f5100818f59002100360082cabf004a
:101bf0008080fb00c0ab20000080400010407800d7
:101c0000e44f50001a003a0082cabf008080fb00f7
:101c100060a82000808040000040eb0080487800f1
:101c200082cabf000080fb008000400080a8200026
:101c300080804000300020008008780082cabf0009
:101c40000080fb0001a920004200dd0001014000ee
:101c50006000b8000089be0082cabf008080fb001f
:101c6000c0ab2000808040000040eb00804878003e
:101c700082cabf000081fb0082cabf008080fb00d7
:101c8000c0a820000080400090407800e0a820001c
:101c9000000041000148780082cabf000040e8000f
:101ca00082eab70082cabf00e24f500002003a0049
:101cb0000040eb0082eab7000080fa000000060056
:101cc0000000fa00b0cabf000004e0000b003200c0
:101cd000705580000000e000080032007055800060
:101ce0000000e90070558800705580000000e00099
:101cf00002003a000040eb00b0eab7000080fa00b2
:101d0000000006000600fa00204798000040eb00a3
:101d1000104798000040eb00004f7800b0cabf00a9
:101d20000080fb00200798002e009000e20f50007a
:101d300032003200ae009000e28f500007003c00fd
:101d40002e0090000000e0000e003200ae00900077
:101d5000e18f50001e003200970037002e009000e7
:101d6000e40f500044003200ae009000e48f5000b9
:101d7000330035002e009000e50f50006100320066
:101d80008d003700ae409000a0cab30080cf500055
:101d90008d003a002e409000b4eab7000040eb00fe
:101da000b7eab700b7cabf00b6eab700b6cabf0005
:101db000b5eab7000040eb00b8eab70010c0b300c6
:101dc000b0eab700a0ff2f00705588007e003700f2
:101dd00020c0b300b0eab7002e409000b5eab700cb
:101de000705580000000e0007700320070558000e0
:101df0000000e90070558800730037002e40900005
:101e0000b6eab70030c0b300b0eab7009255800020
:101e1000b6cabf008040e900302020000200400028
:101e200001487800705580000000e0006600320034
:101e3000705580000000e90070558800620037008e
:101e400040c0b300b0eab7002e409000b7eab70038
:101e500091558000b7cabf00a0409a00705580001d
:101e60000000e00058003200705580000000e900da
:101e70007055880054003700905580003020b00025
:101e800090407800b8cabf0080cf50000c003600e8
:101e900091558000b8cabf000080fb002010b00040
:101ea00001004000ae40900011409800b8cabf0049
:101eb0000040e800b8eab70040c0b300b0eab7009d
:101ec000905580003020b00090407800b8cabf0024
:101ed00080cf500004003a000040eb00b8eab700a1
:101ee00050c0b300b0eab700705580000000e000b9
:101ef00035003200705580000000e9007055880000
:101f00003100370051ab200091407800b6cabf00c5
:101f100000c0400080407800b7cabf0000c0400049
:101f2000004f78000040eb00104798000a0037008f
:101f3000915580001e4090000080fb002010b000f2
:101f400001004000104090001e4f40001e409000d5
:101f50000040e80010479800905580003020b00005
:101f6000904078001e40900080cf5000f0ff3e006f
:101f70001e40780000c0ea000040e800004f7800f2
:101f80000040eb00b0eab7002e4090009e4f1000da
:101f900002003a0010c0b300b1eab70070558000eb
:101fa0000000e00008003200705580000000e900e9
:101fb00070558800040037000040eb00b0eab7001d
:101fc0000000eb00705588000080fa000000060059
:101fd0000400fa00000f7800110798001e0090001e
:101fe000804078001e007800cefa07000080fa00da
:101ff000000006000200fa00004f7800c842a80066
:10200000001920000100200001fb0700c842a900c0
:102010000080fa00000006000200fa00004f78007d
:102020000080fa00000006000000fa000080fa00bc
:10203000000006000000fa000080fa000000060020
:102040000a00fa004007980063004700e1522900a7
:1020500003000900315878004000b1004e009000a4
:10206000104092000040e800204798000000eb007c
:10207000000f7800e3004700a0cab3008048780052
:102080002e4090000080fb004880de0080407800f9
:1020900000c0eb0080c06000630047001140980062
:1020a00063004700ae409000214098004e00900031
:1020b000904078006300470031409800a000200065
:1020c00001002000d2fa0700630047004100200011
:1020d000bfff070063004700904090006300470087
:1020e0002040900000c0400080407800630047001e
:1020f0003040900000c04000704798004e009000b3
:10210000104092000004e000160032004e009000e3
:10211000104092008080fb004e0090000000e8001c
:10212000abff07000000eb00000f7800080037004d
:102130009e0078004e00900000804000904090008b
:102140007e40900000c04000704798001e0fe800dd
:102150004e009000104092000080fb009e0f500047
:10216000f3ff3e007e40900000c0ea000040e8001f
:1021700070479800670047001100200094ff070097
:10218000a000200001002000a1fa07000080fa0052
:10219000000006000000fa00408020005000070008
:1021a0000080fa00000006000000fa00c4fe0700ec
:1021b000b1cabf00e14f500004003a004080200047
:1021c000040007000040eb00b1eab7000080fa000d
:1021d000000006000600fa001007980010c0b300c7
:1021e000004f78001e009000204092000080fb000d
:1021f000e10f500001003200360037001e00900051
:10220000304092000080fb00200798002e009000d4
:10221000ec0f50002f0032002e009000ec0f500009
:1022200007003c002e009000e60f5000080032002e
:102230002e009000e80f50001300320025003700f8
:102240002e009000ef0f50001d00320021003700db
:1022500059cabf00e14f50001e003a0011a9840086
:1022600022a9840033a9840080a120000001070076
:10227000b1a88400c2a88400d3a8840080a1200053
:10228000fb0007001300370059cabf00e14f5000a0
:1022900010003a0011a9840022a9840033a9840007
:1022a00080a12000f2000700b1a88400c2a8840029
:1022b000d3a8840080a12000ed00070005003700ae
:1022c00059cabf00e14f500002003a004080200090
:1022d000510007001e80fb000080fa00000006008d
:1022e0000200fa00000f780010c0b30041ff0700a1
:1022f00050ff07000080fa00000006000200fa000c
:10230000000f78009e0078000040eb00a0409a008b
:10231000311020001e804000021020008000eb00e1
:10232000e7f807001e007800312020008080400080
:102330000040eb00804878000080fa0000000600b2
:102340000400fa00000f78002147980032479800f7
:102350009e00780020c0b300804878001e007800fe
:10236000ae409000114098001e007800be409000e2
:10237000214098009e00780020c0b30090409a0051
:102380001e0078002eff07000080fa000000060003
:102390000200fa00000f78001e007800d7ff070047
:1023a00012c5b3008040eb001e007800e4ff070078
:1023b000a00020000100200015fa070022c5b3008c
:1023c0008040eb001e007800ddff07000080fa006f
:1023d000000006000200fa00000f78001e007800de
:1023e000c6ff070032c5b3008040eb001e00780036
:1023f000d3ff0700a00020000100200004fa07001e
:1024000042c5b3008040eb001e007800ccff0700ff
:102410000080fa00000006000200fa00000f7800b9
:102420001e007800b5ff0700d2c5b3008040eb0066
:102430001e007800c2ff07000080fa0000000600be
:102440000400fa00000f7800110798009e00780041
:1024500040c0b300804878009e0078000040eb0048
:10246000904098001e009000804078001e00780088
:10247000214098009e00780020c0b30090409a0050
:102480001e007800eefe07000080fa000000060043
:102490000400fa00000f78002147980032479800a6
:1024a0009e00780030c2b300804878001e0078009b
:1024b000ae409000114098001e007800be40900091
:1024c000214098009e00780010c0b300b0409800f2
:1024d0009e0078000040eb00c04098009e0078000d
:1024e0000040eb00d04098009e0078000040eb00d8
:1024f000e04098009e00780060c0b30090409a00d1
:102500001e007800cefe07000080fa0000000600e2
:102510000400fa00000f7800214798003247980025
:102520009e00780030c2b300804878001e0078001a
:10253000ae409000114098001e007800be40900010
:10254000214098009e00780020c0b300b040980061
:102550009e0078000040eb00c04098009e0078008c
:102560000040eb00d04098009e0078000040eb0057
:10257000e04098009e00780060c0b30090409a0050
:102580001e007800aefe07000080fa000000060082
:102590000400fa00000f7800110798009e007800f0
:1025a000c0c1b300804878001e00900080407800d1
:1025b0001e007800114098009e0078000040eb005b
:1025c000a04098001e0078009dfe07000080fa00e1
:1025d000000006000200fa00000f78009e0078005c
:1025e0000040eb00c07898009e0078000040eb00af
:1025f000d07898009e0078000040eb00e0789800ca
:102600000080fa00000006000400fa00000f7800c5
:102610001e007800607890008000eb0011079800a1
:102620000004e00002003a001000200010079800ab
:102630001e0090000080fa00000006000400fa006e
:10264000000f78001e007800607890008000eb009a
:1026500011079800ea4f500002003a0010002000d5
:10266000100798001e0090000080fa00000006008d
:102670000800fa00000f78000e80e80001087800da
:1026800012009800230098001e007800ebff07005e
:102690000000e0001b003a001e0078005078900017
:1026a0000080fb001e0178006600b9008200400037
:1026b0000e80e8001001be008288be00a0019000dc
:1026c000a30098001e007800507890000080fb0066
:1026d0000000e800a2002000110009000200d8005c
:1026e0008000fd00804078001e007800517898003e
:1026f0001e007800607890008040e8001e0078009e
:10270000617898000080fa00000006001000fa00ce
:1027100070079800610798006e009000baff0700ec
:102720000000e00011003200e60047000000eb006e
:1027300080087800e60047000000eb00a000980049
:10274000e60047000000eb0090009800660047009c
:102750001001be00fe0090008288be00a001900023
:102760007e01900023019800200037006e00900049
:10277000407890000080fb006e0190006600b90078
:10278000020040001001be00028fbe00a0019000b8
:10279000230798006e009000407890000080fb00b6
:1027a0000000e800a2002000110009000200d8008b
:1027b0008000fd00804078006e0090004178980015
:1027c0006e009000607890008040e9006e009000fc
:1027d000617898001e00be007e0190000089be0056
:1027e0002e009000fe019000a00198007e00900055
:1027f0000080fa00000006000000fa00c862a9008c
:10280000da02a9000080fa00000006000000fa00c9
:10281000c862a800da02a8000080fa0000000600e2
:102820000a00fa00000f780010cabf000004e000a0
:1028300016003a001e00780073ff07000000e00059
:1028400066003a000e80e8009e007800afff0700a7
:102850000e80e8001001be0092508800a35088004e
:10286000a0019000b350880010c0b30010eab70078
:102870000000eb00705088000000eb005050880012
:102880005050800060508800540037009050800005
:10289000e10f400011003a00a0508000e10f50000d
:1028a00004003a00b05080000000e00001003a004f
:1028b000d1ff0700b0508000e10f500004003a0043
:1028c000a05080000000e00001003a00cfff0700a8
:1028d0000040eb0010eab700400037009050800045
:1028e000e10f40003d0032009150800070508000a8
:1028f000808f500031003600a15080006050800071
:10290000808f500004003600bbff0700605080003d
:102910000000e80060508800a150800060508000f6
:10292000808f500008003e00b15080005050800061
:10293000808f500004003600b4ff07005050800024
:102940000000e80050508800b150800050508000d6
:102950000041eb00124f9800808f500002003e00b3
:1029600013c0b300134f9800a15080006050800046
:102970000041eb00024f9800808f500002003e00a3
:1029800013c0b300034f98009e4890000e4990007a
:1029900002c060000004e0001000320070508000af
:1029a0000000e800705088000000eb0060508800d4
:1029b0000000eb0050508800080037009150800064
:1029c00070508000808f500004003e000040eb00fb
:1029d00010eab7000000eb00705088000080fa0099
:1029e000000006000000fa0080a120008cff070014
:1029f0000080fa00000006000000fa0080a120001c
:102a0000f4fe070081a8840092a88400a3a8840093
:102a100080a1200016ff07000080fa0000000600d9
:020000040000fa
:0200000401f009
:04000000e6ff000017
:020000040000fa
:0200000401f009
:04000400ff7f00007a
:020000040000fa
:0200000401f009
:04000800fcff0000f9
:020000040000fa
:0200000401f009
:04001400ffff0000ea
:020000040000fa
:100008007c1500007c1500007c1500007c150000a4
:100018007c1500007c1500007c1500007c15000094
:1000280052070000d80600007c15000042060000b8
:100038007c1500007c15000012070000f206000085
:100048007c1500002a0700007c1500007c150000c4
:100058007c1500007c1500007c1500007c15000054
:100068007c1500007c1500007c1500007c15000044
:100078007c1500007c1500007c1500007607000048
:100088007c1500007c1500007c1500007c15000024
:100098007c1500007c1500007c1500007c15000014
:1000a8007c1500007c1500007c1500007c15000004
:1000b8007c1500007c1500007c1500007c150000f4
:1000c8007c1500007c1500007c1500007c150000e4
:1000d8007c1500007c1500007c1500007c150000d4
:1000e8007c1500007c1500007c1500007c150000c4
:0800f8007c1500007c150000de
:020000040000fa
:100108007c1500007c1500007c1500007c150000a3
:100118007c1500007c1500007c1500007c15000093
:1001280052070000d80600007c15000042060000b7
:100138007c1500007c15000012070000f206000084
:100148007c1500002a0700007c1500007c150000c3
:100158007c1500007c1500007c1500007c15000053
:100168007c1500007c1500007c1500007c15000043
:100178007c1500007c1500007c1500007607000047
:100188007c1500007c1500007c1500007c15000023
:100198007c1500007c1500007c1500007c15000013
:1001a8007c1500007c1500007c1500007c15000003
:1001b8007c1500007c1500007c1500007c150000f3
:1001c8007c1500007c1500007c1500007c150000e3
:1001d8007c1500007c1500007c1500007c150000d3
:1001e8007c1500007c1500007c1500007c150000c3
:0801f8007c1500007c150000dd
:020000040000fa
:102a2000030000001400000014000000ffff00007d
:102a30000100000000000000ffff00000000000097
:102a40000100000003000000050000000a00000073
:102a500003000000050000000a0000000000000064
:042a60000000000072
:020000040000fa
:102a6400580a00002a00000000000000ba0a000012
:102a74000200000000000000000800000200000046
:102a840000000000fe0b0000020000000000000037
:102a9400a00a00000e00000000000000bc0a0000b4
:102aa400020000000200000000000000820a000092
:102ab4001e00000000000000ae0a00000600000036
:102ac40002000000faff000000040800b40a00003d
:102ad40006000000000000000208000008020000d8
:102ae400000000000a0a00004e0000000000000080
:042af40000000000de
:020000040000fa
:082af8000040da000000fe00be
:020000040000fa
:0200000400fffb
:10f80000000000006a1b0000000000000000000073
:10f8100000000000000000000000000000000000e8
:10f8200000000000000000000000000000000000d8
:10f8300000000000000000000000000000000000c8
:00000001FF
